{
  "contractName": "User",
  "abi": [
    {
      "inputs": [
        {
          "internalType": "string",
          "name": "_id",
          "type": "string"
        },
        {
          "internalType": "string",
          "name": "_pass",
          "type": "string"
        },
        {
          "internalType": "string",
          "name": "_name",
          "type": "string"
        },
        {
          "internalType": "string",
          "name": "_tel",
          "type": "string"
        },
        {
          "internalType": "string",
          "name": "_loc",
          "type": "string"
        },
        {
          "internalType": "string",
          "name": "_gender",
          "type": "string"
        },
        {
          "internalType": "string",
          "name": "_email",
          "type": "string"
        }
      ],
      "name": "add_user",
      "outputs": [],
      "stateMutability": "nonpayable",
      "type": "function"
    },
    {
      "inputs": [
        {
          "internalType": "string",
          "name": "_id",
          "type": "string"
        },
        {
          "internalType": "string",
          "name": "_pass",
          "type": "string"
        },
        {
          "internalType": "string",
          "name": "_name",
          "type": "string"
        },
        {
          "internalType": "string",
          "name": "_tel",
          "type": "string"
        },
        {
          "internalType": "string",
          "name": "_loc",
          "type": "string"
        },
        {
          "internalType": "string",
          "name": "_gender",
          "type": "string"
        },
        {
          "internalType": "string",
          "name": "_email",
          "type": "string"
        }
      ],
      "name": "update_user",
      "outputs": [],
      "stateMutability": "nonpayable",
      "type": "function"
    },
    {
      "inputs": [
        {
          "internalType": "string",
          "name": "_id",
          "type": "string"
        }
      ],
      "name": "check_id",
      "outputs": [
        {
          "internalType": "bool",
          "name": "",
          "type": "bool"
        }
      ],
      "stateMutability": "view",
      "type": "function",
      "constant": true
    }
  ],
  "bytecode": "0x608060405234801561001057600080fd5b50610a99806100206000396000f3fe608060405234801561001057600080fd5b50600436106100415760003560e01c806314720211146100465780638aeb25a014610076578063ba1428ee14610092575b600080fd5b610060600480360381019061005b919061050e565b6100ae565b60405161006d9190610572565b60405180910390f35b610090600480360381019061008b919061058d565b6100fb565b005b6100ac60048036038101906100a7919061058d565b610258565b005b6000806000836040516100c19190610764565b908152602001604051809103902060070160009054906101000a900460ff1660ff16036100f157600190506100f6565b600090505b919050565b600160008860405161010d9190610764565b908152602001604051809103902060070160009054906101000a900460ff1660ff160361024f57604051806101000160405280888152602001878152602001868152602001858152602001848152602001838152602001828152602001600160ff168152506000886040516101829190610764565b908152602001604051809103902060008201518160000190816101a59190610991565b5060208201518160010190816101bb9190610991565b5060408201518160020190816101d19190610991565b5060608201518160030190816101e79190610991565b5060808201518160040190816101fd9190610991565b5060a08201518160050190816102139190610991565b5060c08201518160060190816102299190610991565b5060e08201518160070160006101000a81548160ff021916908360ff1602179055509050505b50505050505050565b600080886040516102699190610764565b908152602001604051809103902060070160009054906101000a900460ff1660ff16036103ab57604051806101000160405280888152602001878152602001868152602001858152602001848152602001838152602001828152602001600160ff168152506000886040516102de9190610764565b908152602001604051809103902060008201518160000190816103019190610991565b5060208201518160010190816103179190610991565b50604082015181600201908161032d9190610991565b5060608201518160030190816103439190610991565b5060808201518160040190816103599190610991565b5060a082015181600501908161036f9190610991565b5060c08201518160060190816103859190610991565b5060e08201518160070160006101000a81548160ff021916908360ff1602179055509050505b50505050505050565b6000604051905090565b600080fd5b600080fd5b600080fd5b600080fd5b6000601f19601f8301169050919050565b7f4e487b7100000000000000000000000000000000000000000000000000000000600052604160045260246000fd5b61041b826103d2565b810181811067ffffffffffffffff8211171561043a576104396103e3565b5b80604052505050565b600061044d6103b4565b90506104598282610412565b919050565b600067ffffffffffffffff821115610479576104786103e3565b5b610482826103d2565b9050602081019050919050565b82818337600083830152505050565b60006104b16104ac8461045e565b610443565b9050828152602081018484840111156104cd576104cc6103cd565b5b6104d884828561048f565b509392505050565b600082601f8301126104f5576104f46103c8565b5b813561050584826020860161049e565b91505092915050565b600060208284031215610524576105236103be565b5b600082013567ffffffffffffffff811115610542576105416103c3565b5b61054e848285016104e0565b91505092915050565b60008115159050919050565b61056c81610557565b82525050565b60006020820190506105876000830184610563565b92915050565b600080600080600080600060e0888a0312156105ac576105ab6103be565b5b600088013567ffffffffffffffff8111156105ca576105c96103c3565b5b6105d68a828b016104e0565b975050602088013567ffffffffffffffff8111156105f7576105f66103c3565b5b6106038a828b016104e0565b965050604088013567ffffffffffffffff811115610624576106236103c3565b5b6106308a828b016104e0565b955050606088013567ffffffffffffffff811115610651576106506103c3565b5b61065d8a828b016104e0565b945050608088013567ffffffffffffffff81111561067e5761067d6103c3565b5b61068a8a828b016104e0565b93505060a088013567ffffffffffffffff8111156106ab576106aa6103c3565b5b6106b78a828b016104e0565b92505060c088013567ffffffffffffffff8111156106d8576106d76103c3565b5b6106e48a828b016104e0565b91505092959891949750929550565b600081519050919050565b600081905092915050565b60005b8381101561072757808201518184015260208101905061070c565b60008484015250505050565b600061073e826106f3565b61074881856106fe565b9350610758818560208601610709565b80840191505092915050565b60006107708284610733565b915081905092915050565b7f4e487b7100000000000000000000000000000000000000000000000000000000600052602260045260246000fd5b600060028204905060018216806107c257607f821691505b6020821081036107d5576107d461077b565b5b50919050565b60008190508160005260206000209050919050565b60006020601f8301049050919050565b600082821b905092915050565b60006008830261083d7fffffffffffffffffffffffffffffffffffffffffffffffffffffffffffffffff82610800565b6108478683610800565b95508019841693508086168417925050509392505050565b6000819050919050565b6000819050919050565b600061088e6108896108848461085f565b610869565b61085f565b9050919050565b6000819050919050565b6108a883610873565b6108bc6108b482610895565b84845461080d565b825550505050565b600090565b6108d16108c4565b6108dc81848461089f565b505050565b5b81811015610900576108f56000826108c9565b6001810190506108e2565b5050565b601f82111561094557610916816107db565b61091f846107f0565b8101602085101561092e578190505b61094261093a856107f0565b8301826108e1565b50505b505050565b600082821c905092915050565b60006109686000198460080261094a565b1980831691505092915050565b60006109818383610957565b9150826002028217905092915050565b61099a826106f3565b67ffffffffffffffff8111156109b3576109b26103e3565b5b6109bd82546107aa565b6109c8828285610904565b600060209050601f8311600181146109fb57600084156109e9578287015190505b6109f38582610975565b865550610a5b565b601f198416610a09866107db565b60005b82811015610a3157848901518255600182019150602085019450602081019050610a0c565b86831015610a4e5784890151610a4a601f891682610957565b8355505b6001600288020188555050505b50505050505056fea2646970667358221220f46983e685bfe6d88584cdf02b16213ee1b3812acd2cfbf25fbc40cbe273f55e64736f6c63430008120033",
  "immutableReferences": {},
  "source": "// SPDX-License-Identifier: MIT\r\n\r\n//  \r\npragma solidity >=0.7.0 <0.9.0;\r\n\r\ncontract User{\r\n\r\n    //    \r\n    //       \r\n    //   abled     1 \r\n    //  0\r\n    struct user_info{\r\n        string id;\r\n        string password;\r\n        string name;\r\n        string tel;\r\n        string loc;\r\n        string gender;\r\n        string email;\r\n        uint8 abled;\r\n    }\r\n\r\n    // mapping    \r\n    mapping (string => user_info) users;\r\n\r\n    //   ->    \r\n    function add_user(\r\n        string memory _id, \r\n        string memory _pass, \r\n        string memory _name, \r\n        string memory _tel, \r\n        string memory _loc, \r\n        string memory _gender, \r\n        string memory _email\r\n    ) public {\r\n        //     \r\n        if ( users[_id].abled == 0 ){\r\n            users[_id] = user_info(_id, _pass, _name, _tel, _loc, _gender, _email, 1);\r\n        }\r\n    }\r\n\r\n    //   \r\n    function update_user(\r\n        string memory _id, \r\n        string memory _pass, \r\n        string memory _name, \r\n        string memory _tel, \r\n        string memory _loc, \r\n        string memory _gender, \r\n        string memory _email\r\n    ) public {\r\n        //    \r\n        if ( users[_id].abled == 1 ){\r\n            users[_id] = user_info(_id, _pass, _name, _tel, _loc, _gender, _email, 1);\r\n        }\r\n    }\r\n\r\n    //     \r\n    function check_id(string memory _id) public view returns (bool) {\r\n        if (users[_id].abled == 0){\r\n            return true;\r\n        }else{\r\n            return false;\r\n        }\r\n    }\r\n\r\n}",
  "sourcePath": "C:\\Users\\moons\\Documents\\GitHub\\masan_block_2309\\231004\\contracts\\User.sol",
  "compiler": {
    "name": "solc",
    "version": "0.8.18+commit.87f61d96.Emscripten.clang"
  },
  "schemaVersion": "3.4.16",
  "updatedAt": "2023-10-04T11:48:29.087Z",
  "networkType": "ethereum",
  "devdoc": {
    "kind": "dev",
    "methods": {},
    "version": 1
  },
  "userdoc": {
    "kind": "user",
    "methods": {},
    "version": 1
  }
}