{
  "contractName": "Account",
  "abi": [
    {
      "inputs": [],
      "stateMutability": "nonpayable",
      "type": "constructor"
    },
    {
      "inputs": [
        {
          "internalType": "string",
          "name": "_company",
          "type": "string"
        },
        {
          "internalType": "string",
          "name": "_date",
          "type": "string"
        },
        {
          "internalType": "uint256",
          "name": "_purchase_vat",
          "type": "uint256"
        },
        {
          "internalType": "uint256",
          "name": "_purchase_cost",
          "type": "uint256"
        },
        {
          "internalType": "uint256",
          "name": "_sales_vat",
          "type": "uint256"
        },
        {
          "internalType": "uint256",
          "name": "_sales_cost",
          "type": "uint256"
        },
        {
          "internalType": "address",
          "name": "_register",
          "type": "address"
        }
      ],
      "name": "add_book",
      "outputs": [],
      "stateMutability": "nonpayable",
      "type": "function"
    },
    {
      "inputs": [
        {
          "internalType": "string",
          "name": "_company",
          "type": "string"
        },
        {
          "internalType": "string",
          "name": "_date",
          "type": "string"
        }
      ],
      "name": "view_book",
      "outputs": [
        {
          "components": [
            {
              "internalType": "uint256",
              "name": "purchase_vat",
              "type": "uint256"
            },
            {
              "internalType": "uint256",
              "name": "purchase_cost",
              "type": "uint256"
            },
            {
              "internalType": "uint256",
              "name": "sales_vat",
              "type": "uint256"
            },
            {
              "internalType": "uint256",
              "name": "sales_cost",
              "type": "uint256"
            },
            {
              "internalType": "uint256",
              "name": "profit",
              "type": "uint256"
            },
            {
              "internalType": "address",
              "name": "register",
              "type": "address"
            }
          ],
          "internalType": "struct Account.book_list",
          "name": "",
          "type": "tuple"
        }
      ],
      "stateMutability": "view",
      "type": "function",
      "constant": true
    },
    {
      "inputs": [
        {
          "internalType": "string",
          "name": "_company",
          "type": "string"
        }
      ],
      "name": "view_book_list",
      "outputs": [
        {
          "internalType": "string[]",
          "name": "",
          "type": "string[]"
        }
      ],
      "stateMutability": "view",
      "type": "function",
      "constant": true
    }
  ],
  "bytecode": "0x608060405234801561001057600080fd5b50336000806101000a81548173ffffffffffffffffffffffffffffffffffffffff021916908373ffffffffffffffffffffffffffffffffffffffff160217905550611031806100606000396000f3fe608060405234801561001057600080fd5b50600436106100415760003560e01c8063802050d7146100465780638f9c10611461007657806391e36ffb14610092575b600080fd5b610060600480360381019061005b91906106ee565b6100c2565b60405161006d919061083b565b60405180910390f35b610090600480360381019061008b91906108ae565b6101aa565b005b6100ac60048036038101906100a79190610988565b610451565b6040516100b99190610b12565b60405180910390f35b6100ca610548565b600083836040516020016100df929190610b70565b60405160208183030381529060405290506001816040516101009190610b94565b90815260200160405180910390206040518060c001604052908160008201548152602001600182015481526020016002820154815260200160038201548152602001600482015481526020016005820160009054906101000a900473ffffffffffffffffffffffffffffffffffffffff1673ffffffffffffffffffffffffffffffffffffffff1673ffffffffffffffffffffffffffffffffffffffff168152505091505092915050565b60008054906101000a900473ffffffffffffffffffffffffffffffffffffffff1673ffffffffffffffffffffffffffffffffffffffff163373ffffffffffffffffffffffffffffffffffffffff1614610238576040517f08c379a000000000000000000000000000000000000000000000000000000000815260040161022f90610c2e565b60405180910390fd5b6000878760405160200161024d929190610b70565b6040516020818303038152906040529050600073ffffffffffffffffffffffffffffffffffffffff166001826040516102869190610b94565b908152602001604051809103902060050160009054906101000a900473ffffffffffffffffffffffffffffffffffffffff1673ffffffffffffffffffffffffffffffffffffffff161461030e576040517f08c379a000000000000000000000000000000000000000000000000000000000815260040161030590610c9a565b60405180910390fd5b6040518060c00160405280878152602001868152602001858152602001848152602001868561033d9190610ce9565b81526020018373ffffffffffffffffffffffffffffffffffffffff1681525060018260405161036c9190610b94565b9081526020016040518091039020600082015181600001556020820151816001015560408201518160020155606082015181600301556080820151816004015560a08201518160050160006101000a81548173ffffffffffffffffffffffffffffffffffffffff021916908373ffffffffffffffffffffffffffffffffffffffff1602179055509050506002886040516104069190610b94565b9081526020016040518091039020879080600181540180825580915050600190039060005260206000200160009091909190915090816104469190610f29565b505050505050505050565b60606002826040516104639190610b94565b9081526020016040518091039020805480602002602001604051908101604052809291908181526020016000905b8282101561053d5783829060005260206000200180546104b090610d4c565b80601f01602080910402602001604051908101604052809291908181526020018280546104dc90610d4c565b80156105295780601f106104fe57610100808354040283529160200191610529565b820191906000526020600020905b81548152906001019060200180831161050c57829003601f168201915b505050505081526020019060010190610491565b505050509050919050565b6040518060c001604052806000815260200160008152602001600081526020016000815260200160008152602001600073ffffffffffffffffffffffffffffffffffffffff1681525090565b6000604051905090565b600080fd5b600080fd5b600080fd5b600080fd5b6000601f19601f8301169050919050565b7f4e487b7100000000000000000000000000000000000000000000000000000000600052604160045260246000fd5b6105fb826105b2565b810181811067ffffffffffffffff8211171561061a576106196105c3565b5b80604052505050565b600061062d610594565b905061063982826105f2565b919050565b600067ffffffffffffffff821115610659576106586105c3565b5b610662826105b2565b9050602081019050919050565b82818337600083830152505050565b600061069161068c8461063e565b610623565b9050828152602081018484840111156106ad576106ac6105ad565b5b6106b884828561066f565b509392505050565b600082601f8301126106d5576106d46105a8565b5b81356106e584826020860161067e565b91505092915050565b600080604083850312156107055761070461059e565b5b600083013567ffffffffffffffff811115610723576107226105a3565b5b61072f858286016106c0565b925050602083013567ffffffffffffffff8111156107505761074f6105a3565b5b61075c858286016106c0565b9150509250929050565b6000819050919050565b61077981610766565b82525050565b600073ffffffffffffffffffffffffffffffffffffffff82169050919050565b60006107aa8261077f565b9050919050565b6107ba8161079f565b82525050565b60c0820160008201516107d66000850182610770565b5060208201516107e96020850182610770565b5060408201516107fc6040850182610770565b50606082015161080f6060850182610770565b5060808201516108226080850182610770565b5060a082015161083560a08501826107b1565b50505050565b600060c08201905061085060008301846107c0565b92915050565b61085f81610766565b811461086a57600080fd5b50565b60008135905061087c81610856565b92915050565b61088b8161079f565b811461089657600080fd5b50565b6000813590506108a881610882565b92915050565b600080600080600080600060e0888a0312156108cd576108cc61059e565b5b600088013567ffffffffffffffff8111156108eb576108ea6105a3565b5b6108f78a828b016106c0565b975050602088013567ffffffffffffffff811115610918576109176105a3565b5b6109248a828b016106c0565b96505060406109358a828b0161086d565b95505060606109468a828b0161086d565b94505060806109578a828b0161086d565b93505060a06109688a828b0161086d565b92505060c06109798a828b01610899565b91505092959891949750929550565b60006020828403121561099e5761099d61059e565b5b600082013567ffffffffffffffff8111156109bc576109bb6105a3565b5b6109c8848285016106c0565b91505092915050565b600081519050919050565b600082825260208201905092915050565b6000819050602082019050919050565b600081519050919050565b600082825260208201905092915050565b60005b83811015610a37578082015181840152602081019050610a1c565b60008484015250505050565b6000610a4e826109fd565b610a588185610a08565b9350610a68818560208601610a19565b610a71816105b2565b840191505092915050565b6000610a888383610a43565b905092915050565b6000602082019050919050565b6000610aa8826109d1565b610ab281856109dc565b935083602082028501610ac4856109ed565b8060005b85811015610b005784840389528151610ae18582610a7c565b9450610aec83610a90565b925060208a01995050600181019050610ac8565b50829750879550505050505092915050565b60006020820190508181036000830152610b2c8184610a9d565b905092915050565b600081905092915050565b6000610b4a826109fd565b610b548185610b34565b9350610b64818560208601610a19565b80840191505092915050565b6000610b7c8285610b3f565b9150610b888284610b3f565b91508190509392505050565b6000610ba08284610b3f565b915081905092915050565b600082825260208201905092915050565b7f4f6e6c7920746865206f776e65722063616e206578656375746520746865206660008201527f756e6374696f6e00000000000000000000000000000000000000000000000000602082015250565b6000610c18602783610bab565b9150610c2382610bbc565b604082019050919050565b60006020820190508181036000830152610c4781610c0b565b9050919050565b7f4578697374204461746100000000000000000000000000000000000000000000600082015250565b6000610c84600a83610bab565b9150610c8f82610c4e565b602082019050919050565b60006020820190508181036000830152610cb381610c77565b9050919050565b7f4e487b7100000000000000000000000000000000000000000000000000000000600052601160045260246000fd5b6000610cf482610766565b9150610cff83610766565b9250828203905081811115610d1757610d16610cba565b5b92915050565b7f4e487b7100000000000000000000000000000000000000000000000000000000600052602260045260246000fd5b60006002820490506001821680610d6457607f821691505b602082108103610d7757610d76610d1d565b5b50919050565b60008190508160005260206000209050919050565b60006020601f8301049050919050565b600082821b905092915050565b600060088302610ddf7fffffffffffffffffffffffffffffffffffffffffffffffffffffffffffffffff82610da2565b610de98683610da2565b95508019841693508086168417925050509392505050565b6000819050919050565b6000610e26610e21610e1c84610766565b610e01565b610766565b9050919050565b6000819050919050565b610e4083610e0b565b610e54610e4c82610e2d565b848454610daf565b825550505050565b600090565b610e69610e5c565b610e74818484610e37565b505050565b5b81811015610e9857610e8d600082610e61565b600181019050610e7a565b5050565b601f821115610edd57610eae81610d7d565b610eb784610d92565b81016020851015610ec6578190505b610eda610ed285610d92565b830182610e79565b50505b505050565b600082821c905092915050565b6000610f0060001984600802610ee2565b1980831691505092915050565b6000610f198383610eef565b9150826002028217905092915050565b610f32826109fd565b67ffffffffffffffff811115610f4b57610f4a6105c3565b5b610f558254610d4c565b610f60828285610e9c565b600060209050601f831160018114610f935760008415610f81578287015190505b610f8b8582610f0d565b865550610ff3565b601f198416610fa186610d7d565b60005b82811015610fc957848901518255600182019150602085019450602081019050610fa4565b86831015610fe65784890151610fe2601f891682610eef565b8355505b6001600288020188555050505b50505050505056fea26469706673582212205ef01b7551af5ccc5ffc1a4ef13837cc9d618ce2fce807d8b3ca6e6cce64a75464736f6c63430008120033",
  "immutableReferences": {},
  "source": "// SPDX-License-Identifier: MIT\r\n\r\n// solidity compile version \r\npragma solidity >= 0.7.0 <0.9.0;\r\n\r\n// contract \r\ncontract Account{\r\n\r\n    // owner  \r\n    address internal owner;\r\n\r\n    //   :    owner \r\n    constructor(){\r\n        owner = msg.sender;\r\n    }\r\n\r\n    //  : owner    . \r\n    //  (  ) \r\n    modifier onlyOwner(){\r\n        // require        \r\n        //      \r\n        //              .\r\n        require(msg.sender == owner, \"Only the owner can execute the function\");\r\n        // _ :      . \r\n        _;\r\n    }\r\n\r\n    //  (    )\r\n    //      0 \r\n    //       address(0) \r\n    struct book_list{\r\n        uint purchase_vat;\r\n        uint purchase_cost;\r\n        uint sales_vat;\r\n        uint sales_cost;\r\n        uint profit;\r\n        address register;\r\n    }\r\n\r\n    // mapping data\r\n    mapping (string => book_list) books;\r\n    // books sql table  . \r\n    //     (primary_key)\r\n    // book_list -> primary_key   \r\n    // books -> {\r\n    //     key1(string ) : {\r\n    //         purchase_vat : xxxxx, \r\n    //         purchase_cost : xxxxx, \r\n    //         sales_vat : xxxxx, \r\n    //         sales_cost : xxxxxx, \r\n    //         profit : xxxxxx\r\n    //     },\r\n    //     key2(string ) : {\r\n    //         purchase_vat : xxxxx, \r\n    //         purchase_cost : xxxxx, \r\n    //         sales_vat : xxxxx, \r\n    //         sales_cost : xxxxxx, \r\n    //         profit : xxxxxx\r\n    //     }\r\n    // }\r\n\r\n    //    \r\n    mapping (string => string[]) company_book;\r\n\r\n    //     \r\n    function add_book(\r\n        string memory _company, \r\n        string memory _date, \r\n        uint _purchase_vat, \r\n        uint _purchase_cost, \r\n        uint _sales_vat, \r\n        uint _sales_cost, \r\n        address _register\r\n    ) public onlyOwner() {\r\n        //     \r\n        //          . (    )\r\n        //     \r\n\r\n        // books mapping  \r\n        string memory key = string.concat(_company, _date);\r\n        require(books[key].register == address(0), \"Exist Data\");\r\n        books[key] = book_list(_purchase_vat, _purchase_cost, _sales_vat, _sales_cost, _sales_cost - _purchase_cost, _register);\r\n        // company_book mapping  \r\n        company_book[_company].push(_date);\r\n    }\r\n\r\n    //   \r\n    function view_book(\r\n        string memory _company, \r\n        string memory _date\r\n    ) public view returns(\r\n        book_list memory\r\n    ){\r\n        string memory key = string.concat(_company, _date);\r\n        return books[key];\r\n    }\r\n\r\n    //      \r\n    // company_book      \r\n    //     company_book () . \r\n    function view_book_list(\r\n        string memory _company\r\n    ) public view returns(\r\n        string[] memory\r\n    ){\r\n        return company_book[_company];\r\n    }\r\n\r\n}",
  "sourcePath": "C:\\Users\\moons\\Documents\\GitHub\\masan_block_2309\\sample_project\\Account_book\\contracts\\Account.sol",
  "compiler": {
    "name": "solc",
    "version": "0.8.18+commit.87f61d96.Emscripten.clang"
  },
  "schemaVersion": "3.4.16",
  "updatedAt": "2023-11-13T11:18:48.974Z",
  "networkType": "ethereum",
  "devdoc": {
    "kind": "dev",
    "methods": {},
    "version": 1
  },
  "userdoc": {
    "kind": "user",
    "methods": {},
    "version": 1
  }
}