{
  "contractName": "Account",
  "abi": [
    {
      "inputs": [],
      "stateMutability": "nonpayable",
      "type": "constructor"
    },
    {
      "inputs": [
        {
          "internalType": "string",
          "name": "_company",
          "type": "string"
        },
        {
          "internalType": "string",
          "name": "_date",
          "type": "string"
        },
        {
          "internalType": "uint256",
          "name": "_purchase_vat",
          "type": "uint256"
        },
        {
          "internalType": "uint256",
          "name": "_purchase_cost",
          "type": "uint256"
        },
        {
          "internalType": "uint256",
          "name": "_sales_vat",
          "type": "uint256"
        },
        {
          "internalType": "uint256",
          "name": "_sales_cost",
          "type": "uint256"
        }
      ],
      "name": "add_book",
      "outputs": [],
      "stateMutability": "nonpayable",
      "type": "function"
    },
    {
      "inputs": [
        {
          "internalType": "string",
          "name": "_company",
          "type": "string"
        },
        {
          "internalType": "string",
          "name": "_date",
          "type": "string"
        }
      ],
      "name": "view_book",
      "outputs": [
        {
          "components": [
            {
              "internalType": "uint256",
              "name": "purchase_vat",
              "type": "uint256"
            },
            {
              "internalType": "uint256",
              "name": "purchase_cost",
              "type": "uint256"
            },
            {
              "internalType": "uint256",
              "name": "sales_vat",
              "type": "uint256"
            },
            {
              "internalType": "uint256",
              "name": "sales_cost",
              "type": "uint256"
            },
            {
              "internalType": "uint256",
              "name": "profit",
              "type": "uint256"
            }
          ],
          "internalType": "struct Account.book_list",
          "name": "",
          "type": "tuple"
        }
      ],
      "stateMutability": "view",
      "type": "function"
    }
  ],
  "bytecode": "0x608060405234801561001057600080fd5b50336000806101000a81548173ffffffffffffffffffffffffffffffffffffffff021916908373ffffffffffffffffffffffffffffffffffffffff160217905550610b00806100606000396000f3fe608060405234801561001057600080fd5b50600436106100365760003560e01c8063802050d71461003b578063db60cb9f1461006b575b600080fd5b61005560048036038101906100509190610435565b610087565b604051610062919061052e565b60405180910390f35b61008560048036038101906100809190610575565b610119565b005b61008f6102ac565b600083836040516020016100a49291906106ab565b60405160208183030381529060405290506001816040516100c591906106cf565b90815260200160405180910390206040518060a00160405290816000820154815260200160018201548152602001600282015481526020016003820154815260200160048201548152505091505092915050565b60008054906101000a900473ffffffffffffffffffffffffffffffffffffffff1673ffffffffffffffffffffffffffffffffffffffff163373ffffffffffffffffffffffffffffffffffffffff16146101a7576040517f08c379a000000000000000000000000000000000000000000000000000000000815260040161019e90610769565b60405180910390fd5b600086866040516020016101bc9291906106ab565b60405160208183030381529060405290506040518060a0016040528086815260200185815260200184815260200183815260200185846101fc91906107b8565b81525060018260405161020f91906106cf565b9081526020016040518091039020600082015181600001556020820151816001015560408201518160020155606082015181600301556080820151816004015590505060028760405161026291906106cf565b9081526020016040518091039020869080600181540180825580915050600190039060005260206000200160009091909190915090816102a291906109f8565b5050505050505050565b6040518060a0016040528060008152602001600081526020016000815260200160008152602001600081525090565b6000604051905090565b600080fd5b600080fd5b600080fd5b600080fd5b6000601f19601f8301169050919050565b7f4e487b7100000000000000000000000000000000000000000000000000000000600052604160045260246000fd5b610342826102f9565b810181811067ffffffffffffffff821117156103615761036061030a565b5b80604052505050565b60006103746102db565b90506103808282610339565b919050565b600067ffffffffffffffff8211156103a05761039f61030a565b5b6103a9826102f9565b9050602081019050919050565b82818337600083830152505050565b60006103d86103d384610385565b61036a565b9050828152602081018484840111156103f4576103f36102f4565b5b6103ff8482856103b6565b509392505050565b600082601f83011261041c5761041b6102ef565b5b813561042c8482602086016103c5565b91505092915050565b6000806040838503121561044c5761044b6102e5565b5b600083013567ffffffffffffffff81111561046a576104696102ea565b5b61047685828601610407565b925050602083013567ffffffffffffffff811115610497576104966102ea565b5b6104a385828601610407565b9150509250929050565b6000819050919050565b6104c0816104ad565b82525050565b60a0820160008201516104dc60008501826104b7565b5060208201516104ef60208501826104b7565b50604082015161050260408501826104b7565b50606082015161051560608501826104b7565b50608082015161052860808501826104b7565b50505050565b600060a08201905061054360008301846104c6565b92915050565b610552816104ad565b811461055d57600080fd5b50565b60008135905061056f81610549565b92915050565b60008060008060008060c08789031215610592576105916102e5565b5b600087013567ffffffffffffffff8111156105b0576105af6102ea565b5b6105bc89828a01610407565b965050602087013567ffffffffffffffff8111156105dd576105dc6102ea565b5b6105e989828a01610407565b95505060406105fa89828a01610560565b945050606061060b89828a01610560565b935050608061061c89828a01610560565b92505060a061062d89828a01610560565b9150509295509295509295565b600081519050919050565b600081905092915050565b60005b8381101561066e578082015181840152602081019050610653565b60008484015250505050565b60006106858261063a565b61068f8185610645565b935061069f818560208601610650565b80840191505092915050565b60006106b7828561067a565b91506106c3828461067a565b91508190509392505050565b60006106db828461067a565b915081905092915050565b600082825260208201905092915050565b7f4f6e6c7920746865206f776e65722063616e206578656375746520746865206660008201527f756e6374696f6e00000000000000000000000000000000000000000000000000602082015250565b60006107536027836106e6565b915061075e826106f7565b604082019050919050565b6000602082019050818103600083015261078281610746565b9050919050565b7f4e487b7100000000000000000000000000000000000000000000000000000000600052601160045260246000fd5b60006107c3826104ad565b91506107ce836104ad565b92508282039050818111156107e6576107e5610789565b5b92915050565b7f4e487b7100000000000000000000000000000000000000000000000000000000600052602260045260246000fd5b6000600282049050600182168061083357607f821691505b602082108103610846576108456107ec565b5b50919050565b60008190508160005260206000209050919050565b60006020601f8301049050919050565b600082821b905092915050565b6000600883026108ae7fffffffffffffffffffffffffffffffffffffffffffffffffffffffffffffffff82610871565b6108b88683610871565b95508019841693508086168417925050509392505050565b6000819050919050565b60006108f56108f06108eb846104ad565b6108d0565b6104ad565b9050919050565b6000819050919050565b61090f836108da565b61092361091b826108fc565b84845461087e565b825550505050565b600090565b61093861092b565b610943818484610906565b505050565b5b818110156109675761095c600082610930565b600181019050610949565b5050565b601f8211156109ac5761097d8161084c565b61098684610861565b81016020851015610995578190505b6109a96109a185610861565b830182610948565b50505b505050565b600082821c905092915050565b60006109cf600019846008026109b1565b1980831691505092915050565b60006109e883836109be565b9150826002028217905092915050565b610a018261063a565b67ffffffffffffffff811115610a1a57610a1961030a565b5b610a24825461081b565b610a2f82828561096b565b600060209050601f831160018114610a625760008415610a50578287015190505b610a5a85826109dc565b865550610ac2565b601f198416610a708661084c565b60005b82811015610a9857848901518255600182019150602085019450602081019050610a73565b86831015610ab55784890151610ab1601f8916826109be565b8355505b6001600288020188555050505b50505050505056fea2646970667358221220c8aafa3baf570c9b93cfc20ef1b4b4ba1a9bd002297510138726d960df237dd864736f6c63430008120033",
  "immutableReferences": {},
  "source": "// SPDX-License-Identifier: MIT\r\n\r\n// solidity compile version \r\npragma solidity >= 0.7.0 <0.9.0;\r\n\r\n// contract \r\ncontract Account{\r\n\r\n    // owner  \r\n    address internal owner;\r\n\r\n    //   :    owner \r\n    constructor(){\r\n        owner = msg.sender;\r\n    }\r\n\r\n    //  : owner    . \r\n    //  (  ) \r\n    modifier onlyOwner(){\r\n        // require        \r\n        //      \r\n        //              .\r\n        require(msg.sender == owner, \"Only the owner can execute the function\");\r\n        // _ :      . \r\n        _;\r\n    }\r\n\r\n    //  (    )\r\n    struct book_list{\r\n        uint purchase_vat;\r\n        uint purchase_cost;\r\n        uint sales_vat;\r\n        uint sales_cost;\r\n        uint profit;\r\n    }\r\n\r\n    // mapping data\r\n    mapping (string => book_list) books;\r\n    // books sql table  . \r\n    //     (primary_key)\r\n    // book_list -> primary_key   \r\n    // books -> {\r\n    //     key1(string ) : {\r\n    //         purchase_vat : xxxxx, \r\n    //         purchase_cost : xxxxx, \r\n    //         sales_vat : xxxxx, \r\n    //         sales_cost : xxxxxx, \r\n    //         profit : xxxxxx\r\n    //     },\r\n    //     key2(string ) : {\r\n    //         purchase_vat : xxxxx, \r\n    //         purchase_cost : xxxxx, \r\n    //         sales_vat : xxxxx, \r\n    //         sales_cost : xxxxxx, \r\n    //         profit : xxxxxx\r\n    //     }\r\n    // }\r\n\r\n    //    \r\n    mapping (string => string[]) company_book;\r\n\r\n    //     \r\n    function add_book(\r\n        string memory _company, \r\n        string memory _date, \r\n        uint _purchase_vat, \r\n        uint _purchase_cost, \r\n        uint _sales_vat, \r\n        uint _sales_cost\r\n    ) public onlyOwner() {\r\n        // books mapping  \r\n        string memory key = string.concat(_company, _date);\r\n        books[key] = book_list(_purchase_vat, _purchase_cost, _sales_vat, _sales_cost, _sales_cost - _purchase_cost);\r\n        // company_book mapping  \r\n        company_book[_company].push(_date);\r\n    }\r\n\r\n    //   \r\n    function view_book(\r\n        string memory _company, \r\n        string memory _date\r\n    ) public view returns(\r\n        book_list memory\r\n    ){\r\n        string memory key = string.concat(_company, _date);\r\n        return books[key];\r\n    }\r\n\r\n}",
  "sourcePath": "C:\\Users\\moons\\Documents\\GitHub\\masan_block_2309\\sample_project\\Account_book\\contracts\\Account.sol",
  "compiler": {
    "name": "solc",
    "version": "0.8.18+commit.87f61d96.Emscripten.clang"
  },
  "schemaVersion": "3.4.16",
  "updatedAt": "2023-11-08T10:34:38.042Z",
  "devdoc": {
    "kind": "dev",
    "methods": {},
    "version": 1
  },
  "userdoc": {
    "kind": "user",
    "methods": {},
    "version": 1
  }
}