{
  "contractName": "Survey",
  "abi": [
    {
      "inputs": [],
      "stateMutability": "nonpayable",
      "type": "constructor"
    },
    {
      "inputs": [
        {
          "internalType": "uint256",
          "name": "_no",
          "type": "uint256"
        },
        {
          "internalType": "string",
          "name": "_user",
          "type": "string"
        },
        {
          "internalType": "uint256[]",
          "name": "_answer",
          "type": "uint256[]"
        }
      ],
      "name": "add_survey",
      "outputs": [],
      "stateMutability": "nonpayable",
      "type": "function"
    },
    {
      "inputs": [
        {
          "internalType": "uint256",
          "name": "_no",
          "type": "uint256"
        },
        {
          "internalType": "string",
          "name": "_user",
          "type": "string"
        }
      ],
      "name": "view_survey",
      "outputs": [
        {
          "internalType": "uint256[]",
          "name": "",
          "type": "uint256[]"
        }
      ],
      "stateMutability": "view",
      "type": "function"
    }
  ],
  "bytecode": "0x608060405234801561000f575f80fd5b50335f806101000a81548173ffffffffffffffffffffffffffffffffffffffff021916908373ffffffffffffffffffffffffffffffffffffffff16021790555061066a8061005c5f395ff3fe608060405234801561000f575f80fd5b5060043610610034575f3560e01c806355497dae14610038578063a0032dc214610054575b5f80fd5b610052600480360381019061004d91906103f9565b610084565b005b61006e60048036038101906100699190610481565b6100cb565b60405161007b9190610592565b60405180910390f35b8060015f8581526020019081526020015f20836040516100a4919061061e565b908152602001604051809103902090805190602001906100c592919061014f565b50505050565b606060015f8481526020019081526020015f20826040516100ec919061061e565b908152602001604051809103902080548060200260200160405190810160405280929190818152602001828054801561014257602002820191905f5260205f20905b81548152602001906001019080831161012e575b5050505050905092915050565b828054828255905f5260205f20908101928215610189579160200282015b8281111561018857825182559160200191906001019061016d565b5b509050610196919061019a565b5090565b5b808211156101b1575f815f90555060010161019b565b5090565b5f604051905090565b5f80fd5b5f80fd5b5f819050919050565b6101d8816101c6565b81146101e2575f80fd5b50565b5f813590506101f3816101cf565b92915050565b5f80fd5b5f80fd5b5f601f19601f8301169050919050565b7f4e487b71000000000000000000000000000000000000000000000000000000005f52604160045260245ffd5b61024782610201565b810181811067ffffffffffffffff8211171561026657610265610211565b5b80604052505050565b5f6102786101b5565b9050610284828261023e565b919050565b5f67ffffffffffffffff8211156102a3576102a2610211565b5b6102ac82610201565b9050602081019050919050565b828183375f83830152505050565b5f6102d96102d484610289565b61026f565b9050828152602081018484840111156102f5576102f46101fd565b5b6103008482856102b9565b509392505050565b5f82601f83011261031c5761031b6101f9565b5b813561032c8482602086016102c7565b91505092915050565b5f67ffffffffffffffff82111561034f5761034e610211565b5b602082029050602081019050919050565b5f80fd5b5f61037661037184610335565b61026f565b9050808382526020820190506020840283018581111561039957610398610360565b5b835b818110156103c257806103ae88826101e5565b84526020840193505060208101905061039b565b5050509392505050565b5f82601f8301126103e0576103df6101f9565b5b81356103f0848260208601610364565b91505092915050565b5f805f606084860312156104105761040f6101be565b5b5f61041d868287016101e5565b935050602084013567ffffffffffffffff81111561043e5761043d6101c2565b5b61044a86828701610308565b925050604084013567ffffffffffffffff81111561046b5761046a6101c2565b5b610477868287016103cc565b9150509250925092565b5f8060408385031215610497576104966101be565b5b5f6104a4858286016101e5565b925050602083013567ffffffffffffffff8111156104c5576104c46101c2565b5b6104d185828601610308565b9150509250929050565b5f81519050919050565b5f82825260208201905092915050565b5f819050602082019050919050565b61050d816101c6565b82525050565b5f61051e8383610504565b60208301905092915050565b5f602082019050919050565b5f610540826104db565b61054a81856104e5565b9350610555836104f5565b805f5b8381101561058557815161056c8882610513565b97506105778361052a565b925050600181019050610558565b5085935050505092915050565b5f6020820190508181035f8301526105aa8184610536565b905092915050565b5f81519050919050565b5f81905092915050565b5f5b838110156105e35780820151818401526020810190506105c8565b5f8484015250505050565b5f6105f8826105b2565b61060281856105bc565b93506106128185602086016105c6565b80840191505092915050565b5f61062982846105ee565b91508190509291505056fea26469706673582212202b26ecdd534a47ed8d38403c5bc1fadbc7b3bb9b9b61db195d5f8463ff878b5164736f6c63430008150033",
  "immutableReferences": {},
  "source": "//SPDX-License-Identifier: MIT\r\npragma solidity ^0.8.0;\r\n\r\ncontract Survey{\r\n\r\n    address internal owner;\r\n\r\n    constructor(){\r\n        owner = msg.sender;\r\n    }\r\n\r\n    mapping (uint => mapping (string => uint[])) internal surveys;\r\n    //     \r\n    // express server : DB survey_user table       no \r\n    // solidity : mapping mapping  []    . \r\n    // solidity :  mapping       \r\n\r\n    function add_survey(\r\n        uint _no, \r\n        string memory _user, \r\n        uint[] memory _answer\r\n    ) public {\r\n        surveys[_no][_user] = _answer;\r\n    }\r\n\r\n    function view_survey(\r\n        uint _no, \r\n        string memory _user\r\n    ) public view returns(\r\n        uint[] memory\r\n    ){\r\n        return surveys[_no][_user];\r\n    }\r\n\r\n    \r\n\r\n\r\n}",
  "sourcePath": "C:\\Users\\moons\\Documents\\GitHub\\masan_block_2309\\sample_project\\survey\\contracts\\Survey.sol",
  "compiler": {
    "name": "solc",
    "version": "0.8.21+commit.d9974bed.Emscripten.clang"
  },
  "schemaVersion": "3.4.16",
  "updatedAt": "2023-11-22T11:21:22.893Z",
  "devdoc": {
    "kind": "dev",
    "methods": {},
    "version": 1
  },
  "userdoc": {
    "kind": "user",
    "methods": {},
    "version": 1
  }
}