{
  "contractName": "Survey",
  "abi": [
    {
      "inputs": [],
      "stateMutability": "nonpayable",
      "type": "constructor"
    },
    {
      "anonymous": false,
      "inputs": [
        {
          "indexed": false,
          "internalType": "uint256",
          "name": "",
          "type": "uint256"
        },
        {
          "indexed": false,
          "internalType": "address",
          "name": "",
          "type": "address"
        },
        {
          "indexed": false,
          "internalType": "uint256[]",
          "name": "",
          "type": "uint256[]"
        }
      ],
      "name": "testEvent",
      "type": "event"
    },
    {
      "inputs": [
        {
          "internalType": "uint256",
          "name": "_no",
          "type": "uint256"
        },
        {
          "internalType": "address",
          "name": "_user",
          "type": "address"
        },
        {
          "internalType": "uint256[]",
          "name": "_answer",
          "type": "uint256[]"
        }
      ],
      "name": "add_survey",
      "outputs": [],
      "stateMutability": "nonpayable",
      "type": "function"
    },
    {
      "inputs": [
        {
          "internalType": "uint256",
          "name": "_no",
          "type": "uint256"
        },
        {
          "internalType": "address",
          "name": "_user",
          "type": "address"
        }
      ],
      "name": "check_survey",
      "outputs": [
        {
          "internalType": "bool",
          "name": "",
          "type": "bool"
        }
      ],
      "stateMutability": "view",
      "type": "function",
      "constant": true
    },
    {
      "inputs": [
        {
          "internalType": "uint256",
          "name": "_no",
          "type": "uint256"
        },
        {
          "internalType": "address",
          "name": "_user",
          "type": "address"
        }
      ],
      "name": "view_survey",
      "outputs": [
        {
          "internalType": "uint256[]",
          "name": "",
          "type": "uint256[]"
        }
      ],
      "stateMutability": "view",
      "type": "function",
      "constant": true
    }
  ],
  "bytecode": "0x608060405234801561000f575f80fd5b50335f806101000a81548173ffffffffffffffffffffffffffffffffffffffff021916908373ffffffffffffffffffffffffffffffffffffffff1602179055506109078061005c5f395ff3fe608060405234801561000f575f80fd5b506004361061003f575f3560e01c806353fd60fb146100435780636e12a85f1461005f578063a1d43cd91461008f575b5f80fd5b61005d600480360381019061005891906105e3565b6100bf565b005b6100796004803603810190610074919061064f565b610282565b6040516100869190610744565b60405180910390f35b6100a960048036038101906100a4919061064f565b610325565b6040516100b6919061077e565b60405180910390f35b82823373ffffffffffffffffffffffffffffffffffffffff165f8054906101000a900473ffffffffffffffffffffffffffffffffffffffff1673ffffffffffffffffffffffffffffffffffffffff161461014e576040517f08c379a0000000000000000000000000000000000000000000000000000000008152600401610145906107f1565b60405180910390fd5b5f60015f8481526020019081526020015f205f8373ffffffffffffffffffffffffffffffffffffffff1673ffffffffffffffffffffffffffffffffffffffff1681526020019081526020015f2080549050146101df576040517f08c379a00000000000000000000000000000000000000000000000000000000081526004016101d690610859565b60405180910390fd5b8260015f8781526020019081526020015f205f8673ffffffffffffffffffffffffffffffffffffffff1673ffffffffffffffffffffffffffffffffffffffff1681526020019081526020015f20908051906020019061023f92919061038f565b507fa028dc7e0c4e8ca83d186780fe86de88343db4afe097e734583c4a0d0532aefc85858560405161027393929190610895565b60405180910390a15050505050565b606060015f8481526020019081526020015f205f8373ffffffffffffffffffffffffffffffffffffffff1673ffffffffffffffffffffffffffffffffffffffff1681526020019081526020015f2080548060200260200160405190810160405280929190818152602001828054801561031857602002820191905f5260205f20905b815481526020019060010190808311610304575b5050505050905092915050565b5f8060015f8581526020019081526020015f205f8473ffffffffffffffffffffffffffffffffffffffff1673ffffffffffffffffffffffffffffffffffffffff1681526020019081526020015f208054905014610384575f9050610389565b600190505b92915050565b828054828255905f5260205f209081019282156103c9579160200282015b828111156103c85782518255916020019190600101906103ad565b5b5090506103d691906103da565b5090565b5b808211156103f1575f815f9055506001016103db565b5090565b5f604051905090565b5f80fd5b5f80fd5b5f819050919050565b61041881610406565b8114610422575f80fd5b50565b5f813590506104338161040f565b92915050565b5f73ffffffffffffffffffffffffffffffffffffffff82169050919050565b5f61046282610439565b9050919050565b61047281610458565b811461047c575f80fd5b50565b5f8135905061048d81610469565b92915050565b5f80fd5b5f601f19601f8301169050919050565b7f4e487b71000000000000000000000000000000000000000000000000000000005f52604160045260245ffd5b6104dd82610497565b810181811067ffffffffffffffff821117156104fc576104fb6104a7565b5b80604052505050565b5f61050e6103f5565b905061051a82826104d4565b919050565b5f67ffffffffffffffff821115610539576105386104a7565b5b602082029050602081019050919050565b5f80fd5b5f61056061055b8461051f565b610505565b905080838252602082019050602084028301858111156105835761058261054a565b5b835b818110156105ac57806105988882610425565b845260208401935050602081019050610585565b5050509392505050565b5f82601f8301126105ca576105c9610493565b5b81356105da84826020860161054e565b91505092915050565b5f805f606084860312156105fa576105f96103fe565b5b5f61060786828701610425565b93505060206106188682870161047f565b925050604084013567ffffffffffffffff81111561063957610638610402565b5b610645868287016105b6565b9150509250925092565b5f8060408385031215610665576106646103fe565b5b5f61067285828601610425565b92505060206106838582860161047f565b9150509250929050565b5f81519050919050565b5f82825260208201905092915050565b5f819050602082019050919050565b6106bf81610406565b82525050565b5f6106d083836106b6565b60208301905092915050565b5f602082019050919050565b5f6106f28261068d565b6106fc8185610697565b9350610707836106a7565b805f5b8381101561073757815161071e88826106c5565b9750610729836106dc565b92505060018101905061070a565b5085935050505092915050565b5f6020820190508181035f83015261075c81846106e8565b905092915050565b5f8115159050919050565b61077881610764565b82525050565b5f6020820190506107915f83018461076f565b92915050565b5f82825260208201905092915050565b7f4f6e6c79206f776e65722063616e2063616c6c2066756e6374696f6e000000005f82015250565b5f6107db601c83610797565b91506107e6826107a7565b602082019050919050565b5f6020820190508181035f830152610808816107cf565b9050919050565b7f65786973742073757276657920616e73776572000000000000000000000000005f82015250565b5f610843601383610797565b915061084e8261080f565b602082019050919050565b5f6020820190508181035f83015261087081610837565b9050919050565b61088081610406565b82525050565b61088f81610458565b82525050565b5f6060820190506108a85f830186610877565b6108b56020830185610886565b81810360408301526108c781846106e8565b905094935050505056fea264697066735822122079c38cafbd4986615488c57dc6345ef555808b40b2bfa6c89678aa5ef551660764736f6c63430008150033",
  "immutableReferences": {},
  "source": "//SPDX-License-Identifier: MIT\r\npragma solidity ^0.8.0;\r\n\r\ncontract Survey{\r\n\r\n    address internal owner;\r\n\r\n    //   -> js console.log()  \r\n    event testEvent(uint, address, uint[]);\r\n\r\n\r\n    constructor(){\r\n        owner = msg.sender;\r\n    }\r\n\r\n    modifier checkSurvey(\r\n        uint _no, \r\n        address _user\r\n    ){\r\n        require(owner == msg.sender, 'Only owner can call function');\r\n        require(surveys[_no][_user].length == 0, 'exist survey answer');\r\n        _;\r\n    }\r\n\r\n    mapping (uint => mapping (address => uint[])) internal surveys;\r\n    //     \r\n    // express server : DB survey_user table       no \r\n    // solidity : mapping mapping  []    . \r\n    // solidity :  mapping       \r\n\r\n    //    \r\n    function add_survey(\r\n        uint _no, \r\n        address _user, \r\n        uint[] memory _answer\r\n    ) public checkSurvey(_no, _user){\r\n        // _no :    ( survey_list table no )\r\n        // _user :     \r\n        // _answer :   \r\n        surveys[_no][_user] = _answer;\r\n        //   \r\n        emit testEvent(_no, _user, _answer);\r\n    }\r\n\r\n    //       \r\n    function check_survey(\r\n        uint _no, \r\n        address _user\r\n    ) public view returns(\r\n        bool\r\n    ){\r\n        /* \r\n            surveys -> {\r\n                '_no1' : {\r\n                    '_address1' : [0, 1, 2], \r\n                    '_address2' : [2, 2, 2] \r\n                }\r\n            }\r\n\r\n            //   \r\n            serveys['_no1']['_address1'] -> [0, 1, 2]\r\n            //    \r\n            serveys['_no1']['_address3'] -> []\r\n        */\r\n        // surveys[_no][_user]  ?? ->\r\n        //  (surveys[_no][_user]) False\r\n        if (surveys[_no][_user].length != 0){\r\n            return false;\r\n        }else{\r\n        //     True\r\n            return true;\r\n        }\r\n    }\r\n\r\n    //        \r\n    function view_survey(\r\n        uint _no, \r\n        address _user\r\n    ) public view returns(\r\n        uint[] memory\r\n    ){\r\n        return surveys[_no][_user];\r\n    }\r\n\r\n    \r\n\r\n\r\n}",
  "sourcePath": "C:\\Users\\moons\\Documents\\GitHub\\masan_block_2309\\sample_project\\survey\\contracts\\sur.sol",
  "compiler": {
    "name": "solc",
    "version": "0.8.21+commit.d9974bed.Emscripten.clang"
  },
  "schemaVersion": "3.4.16",
  "updatedAt": "2023-11-27T12:46:59.707Z",
  "networkType": "ethereum",
  "devdoc": {
    "kind": "dev",
    "methods": {},
    "version": 1
  },
  "userdoc": {
    "kind": "user",
    "methods": {},
    "version": 1
  }
}