{
  "contractName": "Mileage",
  "abi": [
    {
      "inputs": [],
      "stateMutability": "nonpayable",
      "type": "constructor"
    },
    {
      "inputs": [
        {
          "internalType": "string",
          "name": "_user",
          "type": "string"
        }
      ],
      "name": "add_user",
      "outputs": [],
      "stateMutability": "nonpayable",
      "type": "function"
    },
    {
      "inputs": [
        {
          "internalType": "string",
          "name": "_user",
          "type": "string"
        },
        {
          "internalType": "uint256",
          "name": "_amount",
          "type": "uint256"
        }
      ],
      "name": "add_mileage",
      "outputs": [],
      "stateMutability": "nonpayable",
      "type": "function"
    },
    {
      "inputs": [
        {
          "internalType": "string",
          "name": "_sender",
          "type": "string"
        },
        {
          "internalType": "string",
          "name": "_receiver",
          "type": "string"
        },
        {
          "internalType": "uint256",
          "name": "_amount",
          "type": "uint256"
        }
      ],
      "name": "trans_mileage",
      "outputs": [],
      "stateMutability": "nonpayable",
      "type": "function"
    },
    {
      "inputs": [
        {
          "internalType": "string",
          "name": "_user",
          "type": "string"
        }
      ],
      "name": "view_mileage",
      "outputs": [
        {
          "internalType": "uint256",
          "name": "",
          "type": "uint256"
        }
      ],
      "stateMutability": "view",
      "type": "function",
      "constant": true
    }
  ],
  "bytecode": "0x608060405234801561001057600080fd5b50336000806101000a81548173ffffffffffffffffffffffffffffffffffffffff021916908373ffffffffffffffffffffffffffffffffffffffff160217905550610b89806100606000396000f3fe608060405234801561001057600080fd5b506004361061004c5760003560e01c806307ac47dd1461005157806345575e011461006d57806387a358aa1461009d578063a087d67c146100b9575b600080fd5b61006b6004803603810190610066919061075f565b6100d5565b005b610087600480360381019061008291906107ea565b61030d565b6040516100949190610842565b60405180910390f35b6100b760048036038101906100b291906107ea565b6103a2565b005b6100d360048036038101906100ce919061085d565b61049b565b005b60008054906101000a900473ffffffffffffffffffffffffffffffffffffffff1673ffffffffffffffffffffffffffffffffffffffff163373ffffffffffffffffffffffffffffffffffffffff1614610163576040517f08c379a000000000000000000000000000000000000000000000000000000000815260040161015a9061093c565b60405180910390fd5b8260028160405161017491906109cd565b908152602001604051809103902060009054906101000a900460ff166101cf576040517f08c379a00000000000000000000000000000000000000000000000000000000081526004016101c690610a30565b60405180910390fd5b826002816040516101e091906109cd565b908152602001604051809103902060009054906101000a900460ff1661023b576040517f08c379a000000000000000000000000000000000000000000000000000000000815260040161023290610a30565b60405180910390fd5b8260018660405161024c91906109cd565b908152602001604051809103902054101561029c576040517f08c379a000000000000000000000000000000000000000000000000000000000815260040161029390610a9c565b60405180910390fd5b826001866040516102ad91906109cd565b908152602001604051809103902060008282546102ca9190610aeb565b92505081905550826001856040516102e291906109cd565b908152602001604051809103902060008282546102ff9190610b1f565b925050819055505050505050565b60008160028160405161032091906109cd565b908152602001604051809103902060009054906101000a900460ff1661037b576040517f08c379a000000000000000000000000000000000000000000000000000000000815260040161037290610a30565b60405180910390fd5b60018360405161038b91906109cd565b908152602001604051809103902054915050919050565b60008054906101000a900473ffffffffffffffffffffffffffffffffffffffff1673ffffffffffffffffffffffffffffffffffffffff163373ffffffffffffffffffffffffffffffffffffffff1614610430576040517f08c379a00000000000000000000000000000000000000000000000000000000081526004016104279061093c565b60405180910390fd5b60028160405161044091906109cd565b908152602001604051809103902060009054906101000a900460ff1661049857600160028260405161047291906109cd565b908152602001604051809103902060006101000a81548160ff0219169083151502179055505b50565b60008054906101000a900473ffffffffffffffffffffffffffffffffffffffff1673ffffffffffffffffffffffffffffffffffffffff163373ffffffffffffffffffffffffffffffffffffffff1614610529576040517f08c379a00000000000000000000000000000000000000000000000000000000081526004016105209061093c565b60405180910390fd5b8160028160405161053a91906109cd565b908152602001604051809103902060009054906101000a900460ff16610595576040517f08c379a000000000000000000000000000000000000000000000000000000000815260040161058c90610a30565b60405180910390fd5b816001846040516105a691906109cd565b908152602001604051809103902060008282546105c39190610b1f565b92505081905550505050565b6000604051905090565b600080fd5b600080fd5b600080fd5b600080fd5b6000601f19601f8301169050919050565b7f4e487b7100000000000000000000000000000000000000000000000000000000600052604160045260246000fd5b610636826105ed565b810181811067ffffffffffffffff82111715610655576106546105fe565b5b80604052505050565b60006106686105cf565b9050610674828261062d565b919050565b600067ffffffffffffffff821115610694576106936105fe565b5b61069d826105ed565b9050602081019050919050565b82818337600083830152505050565b60006106cc6106c784610679565b61065e565b9050828152602081018484840111156106e8576106e76105e8565b5b6106f38482856106aa565b509392505050565b600082601f8301126107105761070f6105e3565b5b81356107208482602086016106b9565b91505092915050565b6000819050919050565b61073c81610729565b811461074757600080fd5b50565b60008135905061075981610733565b92915050565b600080600060608486031215610778576107776105d9565b5b600084013567ffffffffffffffff811115610796576107956105de565b5b6107a2868287016106fb565b935050602084013567ffffffffffffffff8111156107c3576107c26105de565b5b6107cf868287016106fb565b92505060406107e08682870161074a565b9150509250925092565b600060208284031215610800576107ff6105d9565b5b600082013567ffffffffffffffff81111561081e5761081d6105de565b5b61082a848285016106fb565b91505092915050565b61083c81610729565b82525050565b60006020820190506108576000830184610833565b92915050565b60008060408385031215610874576108736105d9565b5b600083013567ffffffffffffffff811115610892576108916105de565b5b61089e858286016106fb565b92505060206108af8582860161074a565b9150509250929050565b600082825260208201905092915050565b7f4f6e6c7920746865206f776e65722063616e206578656375746520746865206660008201527f756e6374696f6e00000000000000000000000000000000000000000000000000602082015250565b60006109266027836108b9565b9150610931826108ca565b604082019050919050565b6000602082019050818103600083015261095581610919565b9050919050565b600081519050919050565b600081905092915050565b60005b83811015610990578082015181840152602081019050610975565b60008484015250505050565b60006109a78261095c565b6109b18185610967565b93506109c1818560208601610972565b80840191505092915050565b60006109d9828461099c565b915081905092915050565b7f596f752061726520616e20756e72656769737465726564207573657200000000600082015250565b6000610a1a601c836108b9565b9150610a25826109e4565b602082019050919050565b60006020820190508181036000830152610a4981610a0d565b9050919050565b7f4e6f7420656e6f756768206d696c656167650000000000000000000000000000600082015250565b6000610a866012836108b9565b9150610a9182610a50565b602082019050919050565b60006020820190508181036000830152610ab581610a79565b9050919050565b7f4e487b7100000000000000000000000000000000000000000000000000000000600052601160045260246000fd5b6000610af682610729565b9150610b0183610729565b9250828203905081811115610b1957610b18610abc565b5b92915050565b6000610b2a82610729565b9150610b3583610729565b9250828201905080821115610b4d57610b4c610abc565b5b9291505056fea2646970667358221220e03184ed6bab5d4f82ae373da66c65cfa5a730c52eccc9de42f73f9ae93e31f864736f6c63430008120033",
  "immutableReferences": {},
  "source": "// SPDX-License-Identifier: MIT\r\n\r\n// Solidity version \r\n// >=, >, <=, < : solidity   \r\n// ^version :  \r\npragma solidity >=0.7.0 <0.9.0;\r\n\r\n// contract \r\ncontract Mileage {\r\n\r\n    //    (       )\r\n    //    \r\n    // internal :    \r\n    address internal owner;\r\n\r\n    //   :   (deploy)       \r\n    constructor(){\r\n        //    owner \r\n        owner = msg.sender;\r\n    }\r\n\r\n    //    mapping data \r\n    // mapping : json    key : value  \r\n    // solidity mapping  key   value    \r\n    mapping(string => uint) internal mileage;\r\n    //    mapping  \r\n    // mapping bool     false \r\n    mapping(string => bool) internal exists;\r\n\r\n    //  (modifier ) :    ->     \r\n    //        \r\n    modifier onlyOwner(){\r\n        // require(, ) :     , \r\n        //       .\r\n        require(msg.sender == owner, \"Only the owner can execute the function\");\r\n        // _ :     \r\n        _;\r\n    }\r\n\r\n    //          \r\n    modifier checkUser(\r\n        string memory _user\r\n    ){\r\n        // exists mapping    \r\n        // exists _user    true\r\n        require(exists[_user], \"You are an unregistered user\");\r\n        _;\r\n    }\r\n\r\n    //   (   )\r\n    function add_user(\r\n        string memory _user\r\n    ) public onlyOwner{\r\n        //     -> mapping value true \r\n        if(!exists[_user]){\r\n            exists[_user] = true;\r\n        }\r\n    }\r\n\r\n    //   ( 1 :   ?  , 2 :   ? )\r\n    // 1 onlyOwner  2 checkUser \r\n    function add_mileage(\r\n        string memory _user, \r\n        uint _amount\r\n    ) public onlyOwner checkUser(_user){\r\n        //   -> mileage mapping data value . \r\n        // a += 10 -> a = a + 10\r\n        mileage[_user] += _amount;       // mileage[_user] = mileage[_user] + _amount ;\r\n    }\r\n\r\n    //     ( 1 :    ?, 2 :     ?  3 :    ? )\r\n    function trans_mileage(\r\n        string memory _sender, \r\n        string memory _receiver, \r\n        uint _amount\r\n    )public onlyOwner checkUser(_sender) checkUser(_receiver){\r\n        // 4 :     _amount   .\r\n        require(mileage[_sender] >= _amount, \"Not enough mileage\");\r\n        //    _amount  \r\n        mileage[_sender] -= _amount;\r\n        //    _amount  \r\n        mileage[_receiver] += _amount;\r\n    }\r\n\r\n    //      (1 :     )\r\n    function view_mileage(\r\n        string memory _user\r\n    )public checkUser(\r\n        _user\r\n    ) view returns(\r\n        uint\r\n    ){\r\n        return mileage[_user];\r\n    }\r\n\r\n}",
  "sourcePath": "C:\\Users\\moons\\Documents\\GitHub\\masan_block_2309\\2310_w4_mileage_server\\contracts\\Mileage.sol",
  "compiler": {
    "name": "solc",
    "version": "0.8.18+commit.87f61d96.Emscripten.clang"
  },
  "schemaVersion": "3.4.16",
  "updatedAt": "2023-10-24T12:13:35.609Z",
  "networkType": "ethereum",
  "devdoc": {
    "kind": "dev",
    "methods": {},
    "version": 1
  },
  "userdoc": {
    "kind": "user",
    "methods": {},
    "version": 1
  }
}