{
  "contractName": "Board",
  "abi": [
    {
      "inputs": [
        {
          "internalType": "string",
          "name": "_title",
          "type": "string"
        },
        {
          "internalType": "string",
          "name": "_writer",
          "type": "string"
        },
        {
          "internalType": "string",
          "name": "_time",
          "type": "string"
        },
        {
          "internalType": "string",
          "name": "_content",
          "type": "string"
        }
      ],
      "name": "add_contents",
      "outputs": [],
      "stateMutability": "nonpayable",
      "type": "function"
    },
    {
      "inputs": [
        {
          "internalType": "uint256",
          "name": "_no",
          "type": "uint256"
        },
        {
          "internalType": "string",
          "name": "_title",
          "type": "string"
        },
        {
          "internalType": "string",
          "name": "_writer",
          "type": "string"
        },
        {
          "internalType": "string",
          "name": "_content",
          "type": "string"
        }
      ],
      "name": "update_contents",
      "outputs": [],
      "stateMutability": "nonpayable",
      "type": "function"
    },
    {
      "inputs": [
        {
          "internalType": "uint256",
          "name": "_no",
          "type": "uint256"
        },
        {
          "internalType": "string",
          "name": "_writer",
          "type": "string"
        }
      ],
      "name": "delete_contetns",
      "outputs": [],
      "stateMutability": "nonpayable",
      "type": "function"
    },
    {
      "inputs": [
        {
          "internalType": "uint256",
          "name": "_no",
          "type": "uint256"
        }
      ],
      "name": "view_content",
      "outputs": [
        {
          "components": [
            {
              "internalType": "string",
              "name": "title",
              "type": "string"
            },
            {
              "internalType": "string",
              "name": "writer",
              "type": "string"
            },
            {
              "internalType": "string",
              "name": "time",
              "type": "string"
            },
            {
              "internalType": "string",
              "name": "content",
              "type": "string"
            }
          ],
          "internalType": "struct Board.contents_info",
          "name": "",
          "type": "tuple"
        }
      ],
      "stateMutability": "view",
      "type": "function",
      "constant": true
    },
    {
      "inputs": [],
      "name": "view_no",
      "outputs": [
        {
          "internalType": "uint256",
          "name": "",
          "type": "uint256"
        }
      ],
      "stateMutability": "view",
      "type": "function",
      "constant": true
    }
  ],
  "bytecode": "0x6080604052600160005534801561001557600080fd5b5061117c806100256000396000f3fe608060405234801561001057600080fd5b50600436106100575760003560e01c806302bc91811461005c5780631f2008ab146100785780637e155989146100a857806395e1fa09146100c6578063e4f6546b146100e2575b600080fd5b610076600480360381019061007191906109aa565b6100fe565b005b610092600480360381019061008d9190610a65565b6102ab565b60405161009f9190610b89565b60405180910390f35b6100b0610526565b6040516100bd9190610bba565b60405180910390f35b6100e060048036038101906100db9190610bd5565b61052f565b005b6100fc60048036038101906100f79190610cac565b6105dc565b005b600060016000868152602001908152602001600020600001805461012190610d37565b905003610163576040517f08c379a000000000000000000000000000000000000000000000000000000000815260040161015a90610dc5565b60405180910390fd5b600060016000868152602001908152602001600020600101805461018690610d37565b80601f01602080910402602001604051908101604052809291908181526020018280546101b290610d37565b80156101ff5780601f106101d4576101008083540402835291602001916101ff565b820191906000526020600020905b8154815290600101906020018083116101e257829003601f168201915b505050505090506000839050808051906020012082805190602001201461025b576040517f08c379a000000000000000000000000000000000000000000000000000000000815260040161025290610e31565b60405180910390fd5b8460016000888152602001908152602001600020600001908161027e9190610ffd565b50826001600088815260200190815260200160002060030190816102a29190610ffd565b50505050505050565b6102b3610795565b6000600160008481526020019081526020016000206040518060800160405290816000820180546102e390610d37565b80601f016020809104026020016040519081016040528092919081815260200182805461030f90610d37565b801561035c5780601f106103315761010080835404028352916020019161035c565b820191906000526020600020905b81548152906001019060200180831161033f57829003601f168201915b5050505050815260200160018201805461037590610d37565b80601f01602080910402602001604051908101604052809291908181526020018280546103a190610d37565b80156103ee5780601f106103c3576101008083540402835291602001916103ee565b820191906000526020600020905b8154815290600101906020018083116103d157829003601f168201915b5050505050815260200160028201805461040790610d37565b80601f016020809104026020016040519081016040528092919081815260200182805461043390610d37565b80156104805780601f1061045557610100808354040283529160200191610480565b820191906000526020600020905b81548152906001019060200180831161046357829003601f168201915b5050505050815260200160038201805461049990610d37565b80601f01602080910402602001604051908101604052809291908181526020018280546104c590610d37565b80156105125780601f106104e757610100808354040283529160200191610512565b820191906000526020600020905b8154815290600101906020018083116104f557829003601f168201915b505050505081525050905080915050919050565b60008054905090565b604051806080016040528085815260200184815260200183815260200182815250600160008054815260200190815260200160002060008201518160000190816105799190610ffd565b50602082015181600101908161058f9190610ffd565b5060408201518160020190816105a59190610ffd565b5060608201518160030190816105bb9190610ffd565b509050506000808154809291906105d1906110fe565b919050555050505050565b60006001600084815260200190815260200160002060000180546105ff90610d37565b905003610641576040517f08c379a000000000000000000000000000000000000000000000000000000000815260040161063890610dc5565b60405180910390fd5b600060016000848152602001908152602001600020600101805461066490610d37565b80601f016020809104026020016040519081016040528092919081815260200182805461069090610d37565b80156106dd5780601f106106b2576101008083540402835291602001916106dd565b820191906000526020600020905b8154815290600101906020018083116106c057829003601f168201915b5050505050905060008290508080519060200120828051906020012014610739576040517f08c379a000000000000000000000000000000000000000000000000000000000815260040161073090610e31565b60405180910390fd5b600160008581526020019081526020016000206000808201600061075d91906107bd565b60018201600061076d91906107bd565b60028201600061077d91906107bd565b60038201600061078d91906107bd565b505050505050565b6040518060800160405280606081526020016060815260200160608152602001606081525090565b5080546107c990610d37565b6000825580601f106107db57506107fa565b601f0160209004906000526020600020908101906107f991906107fd565b5b50565b5b808211156108165760008160009055506001016107fe565b5090565b6000604051905090565b600080fd5b600080fd5b6000819050919050565b6108418161082e565b811461084c57600080fd5b50565b60008135905061085e81610838565b92915050565b600080fd5b600080fd5b6000601f19601f8301169050919050565b7f4e487b7100000000000000000000000000000000000000000000000000000000600052604160045260246000fd5b6108b78261086e565b810181811067ffffffffffffffff821117156108d6576108d561087f565b5b80604052505050565b60006108e961081a565b90506108f582826108ae565b919050565b600067ffffffffffffffff8211156109155761091461087f565b5b61091e8261086e565b9050602081019050919050565b82818337600083830152505050565b600061094d610948846108fa565b6108df565b90508281526020810184848401111561096957610968610869565b5b61097484828561092b565b509392505050565b600082601f83011261099157610990610864565b5b81356109a184826020860161093a565b91505092915050565b600080600080608085870312156109c4576109c3610824565b5b60006109d28782880161084f565b945050602085013567ffffffffffffffff8111156109f3576109f2610829565b5b6109ff8782880161097c565b935050604085013567ffffffffffffffff811115610a2057610a1f610829565b5b610a2c8782880161097c565b925050606085013567ffffffffffffffff811115610a4d57610a4c610829565b5b610a598782880161097c565b91505092959194509250565b600060208284031215610a7b57610a7a610824565b5b6000610a898482850161084f565b91505092915050565b600081519050919050565b600082825260208201905092915050565b60005b83811015610acc578082015181840152602081019050610ab1565b60008484015250505050565b6000610ae382610a92565b610aed8185610a9d565b9350610afd818560208601610aae565b610b068161086e565b840191505092915050565b60006080830160008301518482036000860152610b2e8282610ad8565b91505060208301518482036020860152610b488282610ad8565b91505060408301518482036040860152610b628282610ad8565b91505060608301518482036060860152610b7c8282610ad8565b9150508091505092915050565b60006020820190508181036000830152610ba38184610b11565b905092915050565b610bb48161082e565b82525050565b6000602082019050610bcf6000830184610bab565b92915050565b60008060008060808587031215610bef57610bee610824565b5b600085013567ffffffffffffffff811115610c0d57610c0c610829565b5b610c198782880161097c565b945050602085013567ffffffffffffffff811115610c3a57610c39610829565b5b610c468782880161097c565b935050604085013567ffffffffffffffff811115610c6757610c66610829565b5b610c738782880161097c565b925050606085013567ffffffffffffffff811115610c9457610c93610829565b5b610ca08782880161097c565b91505092959194509250565b60008060408385031215610cc357610cc2610824565b5b6000610cd18582860161084f565b925050602083013567ffffffffffffffff811115610cf257610cf1610829565b5b610cfe8582860161097c565b9150509250929050565b7f4e487b7100000000000000000000000000000000000000000000000000000000600052602260045260246000fd5b60006002820490506001821680610d4f57607f821691505b602082108103610d6257610d61610d08565b5b50919050565b600082825260208201905092915050565b7f4572726f72000000000000000000000000000000000000000000000000000000600082015250565b6000610daf600583610d68565b9150610dba82610d79565b602082019050919050565b60006020820190508181036000830152610dde81610da2565b9050919050565b7f577269746572206e6f74206d6174636800000000000000000000000000000000600082015250565b6000610e1b601083610d68565b9150610e2682610de5565b602082019050919050565b60006020820190508181036000830152610e4a81610e0e565b9050919050565b60008190508160005260206000209050919050565b60006020601f8301049050919050565b600082821b905092915050565b600060088302610eb37fffffffffffffffffffffffffffffffffffffffffffffffffffffffffffffffff82610e76565b610ebd8683610e76565b95508019841693508086168417925050509392505050565b6000819050919050565b6000610efa610ef5610ef08461082e565b610ed5565b61082e565b9050919050565b6000819050919050565b610f1483610edf565b610f28610f2082610f01565b848454610e83565b825550505050565b600090565b610f3d610f30565b610f48818484610f0b565b505050565b5b81811015610f6c57610f61600082610f35565b600181019050610f4e565b5050565b601f821115610fb157610f8281610e51565b610f8b84610e66565b81016020851015610f9a578190505b610fae610fa685610e66565b830182610f4d565b50505b505050565b600082821c905092915050565b6000610fd460001984600802610fb6565b1980831691505092915050565b6000610fed8383610fc3565b9150826002028217905092915050565b61100682610a92565b67ffffffffffffffff81111561101f5761101e61087f565b5b6110298254610d37565b611034828285610f70565b600060209050601f8311600181146110675760008415611055578287015190505b61105f8582610fe1565b8655506110c7565b601f19841661107586610e51565b60005b8281101561109d57848901518255600182019150602085019450602081019050611078565b868310156110ba57848901516110b6601f891682610fc3565b8355505b6001600288020188555050505b505050505050565b7f4e487b7100000000000000000000000000000000000000000000000000000000600052601160045260246000fd5b60006111098261082e565b91507fffffffffffffffffffffffffffffffffffffffffffffffffffffffffffffffff820361113b5761113a6110cf565b5b60018201905091905056fea264697066735822122097d330398307f78c172615472f94ec5932be4a9afcc8978ca38f4017f078248764736f6c63430008120033",
  "immutableReferences": {},
  "source": "// SPDX-License-Identifier: MIT\r\n\r\n//    \r\npragma solidity = 0.8.18;\r\n\r\n// contract \r\ncontract Board{\r\n    //     \r\n    // , , , , \r\n    // mapping   key( )   : \r\n    // mapping ( uint => (, , , )     )\r\n    //   ( 1 )\r\n    uint no = 1;\r\n\r\n    // (  )  (, , , )\r\n    struct contents_info{\r\n        string title;\r\n        string writer;\r\n        string time;\r\n        string content;\r\n    }\r\n\r\n    // mapping data  ( : ,  : contents_info)\r\n    // mapping (  =>  ) \r\n    mapping ( uint => contents_info ) contents;\r\n\r\n    //     \r\n    function add_contents(\r\n        string memory _title, \r\n        string memory _writer, \r\n        string memory _time, \r\n        string memory _content\r\n    ) public {\r\n        // mapping data   \r\n        contents[no] = contents_info(_title, _writer, _time, _content);\r\n        //    no 1 \r\n        no++;\r\n    }\r\n\r\n    //   \r\n    function update_contents(\r\n        uint _no, \r\n        string memory _title, \r\n        string memory _writer, \r\n        string memory _content\r\n    ) public {\r\n        //  ?\r\n        // mapping data      \r\n        //  ?(  0 )\r\n        require(bytes(contents[_no].title).length != 0, \"Error\");\r\n        //   ?\r\n        bytes memory writer = bytes(contents[_no].writer);\r\n        bytes memory writer2 = bytes(_writer);\r\n        require(keccak256(writer) == keccak256(writer2), \"Writer not match\");\r\n        contents[_no].title = _title;\r\n        contents[_no].content = _content;\r\n    }\r\n\r\n    //   \r\n    function delete_contetns(\r\n        uint _no, \r\n        string memory _writer\r\n    )public {\r\n        //      ?\r\n        require(bytes(contents[_no].title).length != 0, \"Error\");\r\n        bytes memory writer = bytes(contents[_no].writer);\r\n        bytes memory writer2 = bytes(_writer);\r\n        require(keccak256(writer) == keccak256(writer2), \"Writer not match\");\r\n        //   \r\n        delete contents[_no];\r\n    }\r\n\r\n\r\n    //    \r\n    function view_content(\r\n        uint _no\r\n    ) public view returns (\r\n        contents_info memory\r\n    ){\r\n        // return contents[_no];\r\n        contents_info memory result = contents[_no];\r\n        return result;\r\n    }\r\n\r\n    //      (        )\r\n    function view_no() public view returns(\r\n        uint\r\n    ){\r\n        // no    1   \r\n        return no;\r\n    }\r\n\r\n\r\n}",
  "sourcePath": "C:\\Users\\moons\\Documents\\GitHub\\masan_block_2309\\board_server\\contracts\\board.sol",
  "compiler": {
    "name": "solc",
    "version": "0.8.18+commit.87f61d96.Emscripten.clang"
  },
  "schemaVersion": "3.4.16",
  "updatedAt": "2023-10-11T10:52:44.376Z",
  "networkType": "ethereum",
  "devdoc": {
    "kind": "dev",
    "methods": {},
    "version": 1
  },
  "userdoc": {
    "kind": "user",
    "methods": {},
    "version": 1
  }
}