{
  "contractName": "Board",
  "abi": [
    {
      "inputs": [
        {
          "internalType": "string",
          "name": "_title",
          "type": "string"
        },
        {
          "internalType": "string",
          "name": "_writer",
          "type": "string"
        },
        {
          "internalType": "string",
          "name": "_time",
          "type": "string"
        },
        {
          "internalType": "string",
          "name": "_content",
          "type": "string"
        }
      ],
      "name": "add_contents",
      "outputs": [],
      "stateMutability": "nonpayable",
      "type": "function"
    },
    {
      "inputs": [
        {
          "internalType": "uint256",
          "name": "_no",
          "type": "uint256"
        }
      ],
      "name": "view_content",
      "outputs": [
        {
          "components": [
            {
              "internalType": "string",
              "name": "title",
              "type": "string"
            },
            {
              "internalType": "string",
              "name": "writer",
              "type": "string"
            },
            {
              "internalType": "string",
              "name": "time",
              "type": "string"
            },
            {
              "internalType": "string",
              "name": "content",
              "type": "string"
            }
          ],
          "internalType": "struct Board.contents_info",
          "name": "",
          "type": "tuple"
        }
      ],
      "stateMutability": "view",
      "type": "function",
      "constant": true
    },
    {
      "inputs": [],
      "name": "view_no",
      "outputs": [
        {
          "internalType": "uint256",
          "name": "",
          "type": "uint256"
        }
      ],
      "stateMutability": "view",
      "type": "function",
      "constant": true
    }
  ],
  "bytecode": "0x6080604052600160005534801561001557600080fd5b50610b6b806100256000396000f3fe608060405234801561001057600080fd5b50600436106100415760003560e01c80631f2008ab146100465780637e1559891461007657806395e1fa0914610094575b600080fd5b610060600480360381019061005b9190610453565b6100b0565b60405161006d9190610588565b60405180910390f35b61007e61032b565b60405161008b91906105b9565b60405180910390f35b6100ae60048036038101906100a99190610709565b610334565b005b6100b86103e1565b6000600160008481526020019081526020016000206040518060800160405290816000820180546100e89061080f565b80601f01602080910402602001604051908101604052809291908181526020018280546101149061080f565b80156101615780601f1061013657610100808354040283529160200191610161565b820191906000526020600020905b81548152906001019060200180831161014457829003601f168201915b5050505050815260200160018201805461017a9061080f565b80601f01602080910402602001604051908101604052809291908181526020018280546101a69061080f565b80156101f35780601f106101c8576101008083540402835291602001916101f3565b820191906000526020600020905b8154815290600101906020018083116101d657829003601f168201915b5050505050815260200160028201805461020c9061080f565b80601f01602080910402602001604051908101604052809291908181526020018280546102389061080f565b80156102855780601f1061025a57610100808354040283529160200191610285565b820191906000526020600020905b81548152906001019060200180831161026857829003601f168201915b5050505050815260200160038201805461029e9061080f565b80601f01602080910402602001604051908101604052809291908181526020018280546102ca9061080f565b80156103175780601f106102ec57610100808354040283529160200191610317565b820191906000526020600020905b8154815290600101906020018083116102fa57829003601f168201915b505050505081525050905080915050919050565b60008054905090565b6040518060800160405280858152602001848152602001838152602001828152506001600080548152602001908152602001600020600082015181600001908161037e91906109ec565b50602082015181600101908161039491906109ec565b5060408201518160020190816103aa91906109ec565b5060608201518160030190816103c091906109ec565b509050506000808154809291906103d690610aed565b919050555050505050565b6040518060800160405280606081526020016060815260200160608152602001606081525090565b6000604051905090565b600080fd5b600080fd5b6000819050919050565b6104308161041d565b811461043b57600080fd5b50565b60008135905061044d81610427565b92915050565b60006020828403121561046957610468610413565b5b60006104778482850161043e565b91505092915050565b600081519050919050565b600082825260208201905092915050565b60005b838110156104ba57808201518184015260208101905061049f565b60008484015250505050565b6000601f19601f8301169050919050565b60006104e282610480565b6104ec818561048b565b93506104fc81856020860161049c565b610505816104c6565b840191505092915050565b6000608083016000830151848203600086015261052d82826104d7565b9150506020830151848203602086015261054782826104d7565b9150506040830151848203604086015261056182826104d7565b9150506060830151848203606086015261057b82826104d7565b9150508091505092915050565b600060208201905081810360008301526105a28184610510565b905092915050565b6105b38161041d565b82525050565b60006020820190506105ce60008301846105aa565b92915050565b600080fd5b600080fd5b7f4e487b7100000000000000000000000000000000000000000000000000000000600052604160045260246000fd5b610616826104c6565b810181811067ffffffffffffffff82111715610635576106346105de565b5b80604052505050565b6000610648610409565b9050610654828261060d565b919050565b600067ffffffffffffffff821115610674576106736105de565b5b61067d826104c6565b9050602081019050919050565b82818337600083830152505050565b60006106ac6106a784610659565b61063e565b9050828152602081018484840111156106c8576106c76105d9565b5b6106d384828561068a565b509392505050565b600082601f8301126106f0576106ef6105d4565b5b8135610700848260208601610699565b91505092915050565b6000806000806080858703121561072357610722610413565b5b600085013567ffffffffffffffff81111561074157610740610418565b5b61074d878288016106db565b945050602085013567ffffffffffffffff81111561076e5761076d610418565b5b61077a878288016106db565b935050604085013567ffffffffffffffff81111561079b5761079a610418565b5b6107a7878288016106db565b925050606085013567ffffffffffffffff8111156107c8576107c7610418565b5b6107d4878288016106db565b91505092959194509250565b7f4e487b7100000000000000000000000000000000000000000000000000000000600052602260045260246000fd5b6000600282049050600182168061082757607f821691505b60208210810361083a576108396107e0565b5b50919050565b60008190508160005260206000209050919050565b60006020601f8301049050919050565b600082821b905092915050565b6000600883026108a27fffffffffffffffffffffffffffffffffffffffffffffffffffffffffffffffff82610865565b6108ac8683610865565b95508019841693508086168417925050509392505050565b6000819050919050565b60006108e96108e46108df8461041d565b6108c4565b61041d565b9050919050565b6000819050919050565b610903836108ce565b61091761090f826108f0565b848454610872565b825550505050565b600090565b61092c61091f565b6109378184846108fa565b505050565b5b8181101561095b57610950600082610924565b60018101905061093d565b5050565b601f8211156109a05761097181610840565b61097a84610855565b81016020851015610989578190505b61099d61099585610855565b83018261093c565b50505b505050565b600082821c905092915050565b60006109c3600019846008026109a5565b1980831691505092915050565b60006109dc83836109b2565b9150826002028217905092915050565b6109f582610480565b67ffffffffffffffff811115610a0e57610a0d6105de565b5b610a18825461080f565b610a2382828561095f565b600060209050601f831160018114610a565760008415610a44578287015190505b610a4e85826109d0565b865550610ab6565b601f198416610a6486610840565b60005b82811015610a8c57848901518255600182019150602085019450602081019050610a67565b86831015610aa95784890151610aa5601f8916826109b2565b8355505b6001600288020188555050505b505050505050565b7f4e487b7100000000000000000000000000000000000000000000000000000000600052601160045260246000fd5b6000610af88261041d565b91507fffffffffffffffffffffffffffffffffffffffffffffffffffffffffffffffff8203610b2a57610b29610abe565b5b60018201905091905056fea26469706673582212206b88bbc6a668c352c7b22128fd9ea19373a48c65daeb372948bf74a412e91dbe64736f6c63430008120033",
  "immutableReferences": {},
  "source": "// SPDX-License-Identifier: MIT\r\n\r\n//    \r\npragma solidity = 0.8.18;\r\n\r\n// contract \r\ncontract Board{\r\n    //     \r\n    // , , , , \r\n    // mapping   key( )   : \r\n    // mapping ( uint => (, , , )     )\r\n    //   ( 1 )\r\n    uint no = 1;\r\n\r\n    // (  )  (, , , )\r\n    struct contents_info{\r\n        string title;\r\n        string writer;\r\n        string time;\r\n        string content;\r\n    }\r\n\r\n    // mapping data  ( : ,  : contents_info)\r\n    // mapping (  =>  ) \r\n    mapping ( uint => contents_info ) contents;\r\n\r\n    //     \r\n    function add_contents(\r\n        string memory _title, \r\n        string memory _writer, \r\n        string memory _time, \r\n        string memory _content\r\n    ) public {\r\n        // mapping data   \r\n        contents[no] = contents_info(_title, _writer, _time, _content);\r\n        //    no 1 \r\n        no++;\r\n    }\r\n\r\n    //    \r\n    function view_content(\r\n        uint _no\r\n    ) public view returns (\r\n        contents_info memory\r\n    ){\r\n        // return contents[_no];\r\n        contents_info memory result = contents[_no];\r\n        return result;\r\n    }\r\n\r\n    //      (        )\r\n    function view_no() public view returns(\r\n        uint\r\n    ){\r\n        // no    1   \r\n        return no;\r\n    }\r\n\r\n\r\n}",
  "sourcePath": "C:\\Users\\moons\\Documents\\GitHub\\masan_block_2309\\board_server\\contracts\\board.sol",
  "compiler": {
    "name": "solc",
    "version": "0.8.18+commit.87f61d96.Emscripten.clang"
  },
  "schemaVersion": "3.4.16",
  "updatedAt": "2023-10-06T12:50:53.616Z",
  "networkType": "ethereum",
  "devdoc": {
    "kind": "dev",
    "methods": {},
    "version": 1
  },
  "userdoc": {
    "kind": "user",
    "methods": {},
    "version": 1
  }
}