{
  "contractName": "User",
  "abi": [
    {
      "inputs": [
        {
          "internalType": "string",
          "name": "_id",
          "type": "string"
        },
        {
          "internalType": "string",
          "name": "_pass",
          "type": "string"
        },
        {
          "internalType": "string",
          "name": "_name",
          "type": "string"
        },
        {
          "internalType": "string",
          "name": "_tel",
          "type": "string"
        },
        {
          "internalType": "string",
          "name": "_loc",
          "type": "string"
        },
        {
          "internalType": "string",
          "name": "_gender",
          "type": "string"
        },
        {
          "internalType": "string",
          "name": "_email",
          "type": "string"
        }
      ],
      "name": "add_user",
      "outputs": [],
      "stateMutability": "nonpayable",
      "type": "function"
    },
    {
      "inputs": [
        {
          "internalType": "string",
          "name": "_id",
          "type": "string"
        },
        {
          "internalType": "string",
          "name": "_pass",
          "type": "string"
        },
        {
          "internalType": "string",
          "name": "_name",
          "type": "string"
        },
        {
          "internalType": "string",
          "name": "_tel",
          "type": "string"
        },
        {
          "internalType": "string",
          "name": "_loc",
          "type": "string"
        },
        {
          "internalType": "string",
          "name": "_gender",
          "type": "string"
        },
        {
          "internalType": "string",
          "name": "_email",
          "type": "string"
        }
      ],
      "name": "update_user",
      "outputs": [],
      "stateMutability": "nonpayable",
      "type": "function"
    },
    {
      "inputs": [
        {
          "internalType": "string",
          "name": "_id",
          "type": "string"
        }
      ],
      "name": "check_id",
      "outputs": [
        {
          "internalType": "bool",
          "name": "",
          "type": "bool"
        }
      ],
      "stateMutability": "view",
      "type": "function",
      "constant": true
    },
    {
      "inputs": [
        {
          "internalType": "string",
          "name": "_id",
          "type": "string"
        }
      ],
      "name": "view_user",
      "outputs": [
        {
          "components": [
            {
              "internalType": "string",
              "name": "id",
              "type": "string"
            },
            {
              "internalType": "string",
              "name": "password",
              "type": "string"
            },
            {
              "internalType": "string",
              "name": "name",
              "type": "string"
            },
            {
              "internalType": "string",
              "name": "tel",
              "type": "string"
            },
            {
              "internalType": "string",
              "name": "loc",
              "type": "string"
            },
            {
              "internalType": "string",
              "name": "gender",
              "type": "string"
            },
            {
              "internalType": "string",
              "name": "email",
              "type": "string"
            },
            {
              "internalType": "uint8",
              "name": "abled",
              "type": "uint8"
            }
          ],
          "internalType": "struct User.user_info",
          "name": "",
          "type": "tuple"
        }
      ],
      "stateMutability": "view",
      "type": "function",
      "constant": true
    }
  ],
  "bytecode": "0x608060405234801561001057600080fd5b506110d7806100206000396000f3fe608060405234801561001057600080fd5b506004361061004c5760003560e01c806314720211146100515780638aeb25a014610081578063ba1428ee1461009d578063dda39111146100b9575b600080fd5b61006b600480360381019061006691906109ea565b6100e9565b6040516100789190610a4e565b60405180910390f35b61009b60048036038101906100969190610a69565b610136565b005b6100b760048036038101906100b29190610a69565b610293565b005b6100d360048036038101906100ce91906109ea565b6103ef565b6040516100e09190610d44565b60405180910390f35b6000806000836040516100fc9190610da2565b908152602001604051809103902060070160009054906101000a900460ff1660ff160361012c5760019050610131565b600090505b919050565b60016000886040516101489190610da2565b908152602001604051809103902060070160009054906101000a900460ff1660ff160361028a57604051806101000160405280888152602001878152602001868152602001858152602001848152602001838152602001828152602001600160ff168152506000886040516101bd9190610da2565b908152602001604051809103902060008201518160000190816101e09190610fcf565b5060208201518160010190816101f69190610fcf565b50604082015181600201908161020c9190610fcf565b5060608201518160030190816102229190610fcf565b5060808201518160040190816102389190610fcf565b5060a082015181600501908161024e9190610fcf565b5060c08201518160060190816102649190610fcf565b5060e08201518160070160006101000a81548160ff021916908360ff1602179055509050505b50505050505050565b600080886040516102a49190610da2565b908152602001604051809103902060070160009054906101000a900460ff1660ff16036103e657604051806101000160405280888152602001878152602001868152602001858152602001848152602001838152602001828152602001600160ff168152506000886040516103199190610da2565b9081526020016040518091039020600082015181600001908161033c9190610fcf565b5060208201518160010190816103529190610fcf565b5060408201518160020190816103689190610fcf565b50606082015181600301908161037e9190610fcf565b5060808201518160040190816103949190610fcf565b5060a08201518160050190816103aa9190610fcf565b5060c08201518160060190816103c09190610fcf565b5060e08201518160070160006101000a81548160ff021916908360ff1602179055509050505b50505050505050565b6103f7610848565b600080836040516104089190610da2565b90815260200160405180910390206040518061010001604052908160008201805461043290610de8565b80601f016020809104026020016040519081016040528092919081815260200182805461045e90610de8565b80156104ab5780601f10610480576101008083540402835291602001916104ab565b820191906000526020600020905b81548152906001019060200180831161048e57829003601f168201915b505050505081526020016001820180546104c490610de8565b80601f01602080910402602001604051908101604052809291908181526020018280546104f090610de8565b801561053d5780601f106105125761010080835404028352916020019161053d565b820191906000526020600020905b81548152906001019060200180831161052057829003601f168201915b5050505050815260200160028201805461055690610de8565b80601f016020809104026020016040519081016040528092919081815260200182805461058290610de8565b80156105cf5780601f106105a4576101008083540402835291602001916105cf565b820191906000526020600020905b8154815290600101906020018083116105b257829003601f168201915b505050505081526020016003820180546105e890610de8565b80601f016020809104026020016040519081016040528092919081815260200182805461061490610de8565b80156106615780601f1061063657610100808354040283529160200191610661565b820191906000526020600020905b81548152906001019060200180831161064457829003601f168201915b5050505050815260200160048201805461067a90610de8565b80601f01602080910402602001604051908101604052809291908181526020018280546106a690610de8565b80156106f35780601f106106c8576101008083540402835291602001916106f3565b820191906000526020600020905b8154815290600101906020018083116106d657829003601f168201915b5050505050815260200160058201805461070c90610de8565b80601f016020809104026020016040519081016040528092919081815260200182805461073890610de8565b80156107855780601f1061075a57610100808354040283529160200191610785565b820191906000526020600020905b81548152906001019060200180831161076857829003601f168201915b5050505050815260200160068201805461079e90610de8565b80601f01602080910402602001604051908101604052809291908181526020018280546107ca90610de8565b80156108175780601f106107ec57610100808354040283529160200191610817565b820191906000526020600020905b8154815290600101906020018083116107fa57829003601f168201915b505050505081526020016007820160009054906101000a900460ff1660ff1660ff1681525050905080915050919050565b60405180610100016040528060608152602001606081526020016060815260200160608152602001606081526020016060815260200160608152602001600060ff1681525090565b6000604051905090565b600080fd5b600080fd5b600080fd5b600080fd5b6000601f19601f8301169050919050565b7f4e487b7100000000000000000000000000000000000000000000000000000000600052604160045260246000fd5b6108f7826108ae565b810181811067ffffffffffffffff82111715610916576109156108bf565b5b80604052505050565b6000610929610890565b905061093582826108ee565b919050565b600067ffffffffffffffff821115610955576109546108bf565b5b61095e826108ae565b9050602081019050919050565b82818337600083830152505050565b600061098d6109888461093a565b61091f565b9050828152602081018484840111156109a9576109a86108a9565b5b6109b484828561096b565b509392505050565b600082601f8301126109d1576109d06108a4565b5b81356109e184826020860161097a565b91505092915050565b600060208284031215610a00576109ff61089a565b5b600082013567ffffffffffffffff811115610a1e57610a1d61089f565b5b610a2a848285016109bc565b91505092915050565b60008115159050919050565b610a4881610a33565b82525050565b6000602082019050610a636000830184610a3f565b92915050565b600080600080600080600060e0888a031215610a8857610a8761089a565b5b600088013567ffffffffffffffff811115610aa657610aa561089f565b5b610ab28a828b016109bc565b975050602088013567ffffffffffffffff811115610ad357610ad261089f565b5b610adf8a828b016109bc565b965050604088013567ffffffffffffffff811115610b0057610aff61089f565b5b610b0c8a828b016109bc565b955050606088013567ffffffffffffffff811115610b2d57610b2c61089f565b5b610b398a828b016109bc565b945050608088013567ffffffffffffffff811115610b5a57610b5961089f565b5b610b668a828b016109bc565b93505060a088013567ffffffffffffffff811115610b8757610b8661089f565b5b610b938a828b016109bc565b92505060c088013567ffffffffffffffff811115610bb457610bb361089f565b5b610bc08a828b016109bc565b91505092959891949750929550565b600081519050919050565b600082825260208201905092915050565b60005b83811015610c09578082015181840152602081019050610bee565b60008484015250505050565b6000610c2082610bcf565b610c2a8185610bda565b9350610c3a818560208601610beb565b610c43816108ae565b840191505092915050565b600060ff82169050919050565b610c6481610c4e565b82525050565b6000610100830160008301518482036000860152610c888282610c15565b91505060208301518482036020860152610ca28282610c15565b91505060408301518482036040860152610cbc8282610c15565b91505060608301518482036060860152610cd68282610c15565b91505060808301518482036080860152610cf08282610c15565b91505060a083015184820360a0860152610d0a8282610c15565b91505060c083015184820360c0860152610d248282610c15565b91505060e0830151610d3960e0860182610c5b565b508091505092915050565b60006020820190508181036000830152610d5e8184610c6a565b905092915050565b600081905092915050565b6000610d7c82610bcf565b610d868185610d66565b9350610d96818560208601610beb565b80840191505092915050565b6000610dae8284610d71565b915081905092915050565b7f4e487b7100000000000000000000000000000000000000000000000000000000600052602260045260246000fd5b60006002820490506001821680610e0057607f821691505b602082108103610e1357610e12610db9565b5b50919050565b60008190508160005260206000209050919050565b60006020601f8301049050919050565b600082821b905092915050565b600060088302610e7b7fffffffffffffffffffffffffffffffffffffffffffffffffffffffffffffffff82610e3e565b610e858683610e3e565b95508019841693508086168417925050509392505050565b6000819050919050565b6000819050919050565b6000610ecc610ec7610ec284610e9d565b610ea7565b610e9d565b9050919050565b6000819050919050565b610ee683610eb1565b610efa610ef282610ed3565b848454610e4b565b825550505050565b600090565b610f0f610f02565b610f1a818484610edd565b505050565b5b81811015610f3e57610f33600082610f07565b600181019050610f20565b5050565b601f821115610f8357610f5481610e19565b610f5d84610e2e565b81016020851015610f6c578190505b610f80610f7885610e2e565b830182610f1f565b50505b505050565b600082821c905092915050565b6000610fa660001984600802610f88565b1980831691505092915050565b6000610fbf8383610f95565b9150826002028217905092915050565b610fd882610bcf565b67ffffffffffffffff811115610ff157610ff06108bf565b5b610ffb8254610de8565b611006828285610f42565b600060209050601f8311600181146110395760008415611027578287015190505b6110318582610fb3565b865550611099565b601f19841661104786610e19565b60005b8281101561106f5784890151825560018201915060208501945060208101905061104a565b8683101561108c5784890151611088601f891682610f95565b8355505b6001600288020188555050505b50505050505056fea2646970667358221220c1ede1c5bcec12a55681e156bda21e5d4d9e78d502a594b0c464b9a0bc09a37964736f6c63430008120033",
  "immutableReferences": {},
  "source": "// SPDX-License-Identifier: MIT\r\n\r\n//  \r\npragma solidity >=0.7.0 <0.9.0;\r\n\r\ncontract User{\r\n\r\n    //    \r\n    //       \r\n    //   abled     1 \r\n    //  0\r\n    struct user_info{\r\n        string id;\r\n        string password;\r\n        string name;\r\n        string tel;\r\n        string loc;\r\n        string gender;\r\n        string email;\r\n        uint8 abled;\r\n    }\r\n\r\n    // mapping    \r\n    mapping (string => user_info) users;\r\n\r\n    //   ->    \r\n    function add_user(\r\n        string memory _id, \r\n        string memory _pass, \r\n        string memory _name, \r\n        string memory _tel, \r\n        string memory _loc, \r\n        string memory _gender, \r\n        string memory _email\r\n    ) public {\r\n        //     \r\n        if ( users[_id].abled == 0 ){\r\n            users[_id] = user_info(_id, _pass, _name, _tel, _loc, _gender, _email, 1);\r\n        }\r\n    }\r\n\r\n    //   \r\n    function update_user(\r\n        string memory _id, \r\n        string memory _pass, \r\n        string memory _name, \r\n        string memory _tel, \r\n        string memory _loc, \r\n        string memory _gender, \r\n        string memory _email\r\n    ) public {\r\n        //    \r\n        if ( users[_id].abled == 1 ){\r\n            users[_id] = user_info(_id, _pass, _name, _tel, _loc, _gender, _email, 1);\r\n        }\r\n    }\r\n\r\n    //     \r\n    function check_id(string memory _id) public view returns (bool) {\r\n        if (users[_id].abled == 0){\r\n            return true;\r\n        }else{\r\n            return false;\r\n        }\r\n    }\r\n    //     (  )\r\n    function view_user(string memory _id) public view returns (user_info memory){\r\n        //   mapping data users   _id value \r\n        //    :       .(js, python) -> const, let\r\n        //    :       . (java, c, solidity) -> string, uint, bool\r\n        user_info memory result = users[_id];\r\n        return result;\r\n    } \r\n\r\n}",
  "sourcePath": "C:\\Users\\moons\\Documents\\GitHub\\masan_block_2309\\231004\\contracts\\User.sol",
  "compiler": {
    "name": "solc",
    "version": "0.8.18+commit.87f61d96.Emscripten.clang"
  },
  "schemaVersion": "3.4.16",
  "updatedAt": "2023-10-05T10:10:34.242Z",
  "networkType": "ethereum",
  "devdoc": {
    "kind": "dev",
    "methods": {},
    "version": 1
  },
  "userdoc": {
    "kind": "user",
    "methods": {},
    "version": 1
  }
}