{
  "contractName": "User",
  "abi": [
    {
      "inputs": [
        {
          "internalType": "string",
          "name": "_id",
          "type": "string"
        },
        {
          "internalType": "string",
          "name": "_pass",
          "type": "string"
        },
        {
          "internalType": "string",
          "name": "_name",
          "type": "string"
        },
        {
          "internalType": "string",
          "name": "_tel",
          "type": "string"
        },
        {
          "internalType": "string",
          "name": "_loc",
          "type": "string"
        },
        {
          "internalType": "string",
          "name": "_gender",
          "type": "string"
        },
        {
          "internalType": "string",
          "name": "_email",
          "type": "string"
        }
      ],
      "name": "add_user",
      "outputs": [],
      "stateMutability": "nonpayable",
      "type": "function"
    },
    {
      "inputs": [
        {
          "internalType": "string",
          "name": "_id",
          "type": "string"
        },
        {
          "internalType": "string",
          "name": "_pass",
          "type": "string"
        },
        {
          "internalType": "string",
          "name": "_name",
          "type": "string"
        },
        {
          "internalType": "string",
          "name": "_tel",
          "type": "string"
        },
        {
          "internalType": "string",
          "name": "_loc",
          "type": "string"
        },
        {
          "internalType": "string",
          "name": "_gender",
          "type": "string"
        },
        {
          "internalType": "string",
          "name": "_email",
          "type": "string"
        }
      ],
      "name": "update_user",
      "outputs": [],
      "stateMutability": "nonpayable",
      "type": "function"
    },
    {
      "inputs": [
        {
          "internalType": "string",
          "name": "_id",
          "type": "string"
        },
        {
          "internalType": "string",
          "name": "_pass",
          "type": "string"
        }
      ],
      "name": "delete_user",
      "outputs": [],
      "stateMutability": "nonpayable",
      "type": "function"
    },
    {
      "inputs": [
        {
          "internalType": "string",
          "name": "_id",
          "type": "string"
        }
      ],
      "name": "check_id",
      "outputs": [
        {
          "internalType": "bool",
          "name": "",
          "type": "bool"
        }
      ],
      "stateMutability": "view",
      "type": "function",
      "constant": true
    },
    {
      "inputs": [
        {
          "internalType": "string",
          "name": "_id",
          "type": "string"
        }
      ],
      "name": "view_user",
      "outputs": [
        {
          "components": [
            {
              "internalType": "string",
              "name": "id",
              "type": "string"
            },
            {
              "internalType": "string",
              "name": "password",
              "type": "string"
            },
            {
              "internalType": "string",
              "name": "name",
              "type": "string"
            },
            {
              "internalType": "string",
              "name": "tel",
              "type": "string"
            },
            {
              "internalType": "string",
              "name": "loc",
              "type": "string"
            },
            {
              "internalType": "string",
              "name": "gender",
              "type": "string"
            },
            {
              "internalType": "string",
              "name": "email",
              "type": "string"
            },
            {
              "internalType": "uint8",
              "name": "abled",
              "type": "uint8"
            }
          ],
          "internalType": "struct User.user_info",
          "name": "",
          "type": "tuple"
        }
      ],
      "stateMutability": "view",
      "type": "function",
      "constant": true
    }
  ],
  "bytecode": "0x608060405234801561001057600080fd5b506114dd806100206000396000f3fe608060405234801561001057600080fd5b50600436106100575760003560e01c8063147202111461005c5780633bbdb2311461008c5780638aeb25a0146100a8578063ba1428ee146100c4578063dda39111146100e0575b600080fd5b61007660048036038101906100719190610c8f565b610110565b6040516100839190610cf3565b60405180910390f35b6100a660048036038101906100a19190610d0e565b61015d565b005b6100c260048036038101906100bd9190610d86565b61037e565b005b6100de60048036038101906100d99190610d86565b6104db565b005b6100fa60048036038101906100f59190610c8f565b610637565b6040516101079190611061565b60405180910390f35b60008060008360405161012391906110bf565b908152602001604051809103902060070160009054906101000a900460ff1660ff16036101535760019050610158565b600090505b919050565b600160008360405161016f91906110bf565b908152602001604051809103902060070160009054906101000a900460ff1660ff16146101d1576040517f08c379a00000000000000000000000000000000000000000000000000000000081526004016101c890611133565b60405180910390fd5b600080836040516101e291906110bf565b908152602001604051809103902060010180546101fe90611182565b80601f016020809104026020016040519081016040528092919081815260200182805461022a90611182565b80156102775780601f1061024c57610100808354040283529160200191610277565b820191906000526020600020905b81548152906001019060200180831161025a57829003601f168201915b50505050509050600082905080805190602001208280519060200120146102d3576040517f08c379a00000000000000000000000000000000000000000000000000000000081526004016102ca906111ff565b60405180910390fd5b6000846040516102e391906110bf565b9081526020016040518091039020600080820160006103029190610a90565b6001820160006103129190610a90565b6002820160006103229190610a90565b6003820160006103329190610a90565b6004820160006103429190610a90565b6005820160006103529190610a90565b6006820160006103629190610a90565b6007820160006101000a81549060ff0219169055505050505050565b600160008860405161039091906110bf565b908152602001604051809103902060070160009054906101000a900460ff1660ff16036104d257604051806101000160405280888152602001878152602001868152602001858152602001848152602001838152602001828152602001600160ff1681525060008860405161040591906110bf565b9081526020016040518091039020600082015181600001908161042891906113d5565b50602082015181600101908161043e91906113d5565b50604082015181600201908161045491906113d5565b50606082015181600301908161046a91906113d5565b50608082015181600401908161048091906113d5565b5060a082015181600501908161049691906113d5565b5060c08201518160060190816104ac91906113d5565b5060e08201518160070160006101000a81548160ff021916908360ff1602179055509050505b50505050505050565b600080886040516104ec91906110bf565b908152602001604051809103902060070160009054906101000a900460ff1660ff160361062e57604051806101000160405280888152602001878152602001868152602001858152602001848152602001838152602001828152602001600160ff1681525060008860405161056191906110bf565b9081526020016040518091039020600082015181600001908161058491906113d5565b50602082015181600101908161059a91906113d5565b5060408201518160020190816105b091906113d5565b5060608201518160030190816105c691906113d5565b5060808201518160040190816105dc91906113d5565b5060a08201518160050190816105f291906113d5565b5060c082015181600601908161060891906113d5565b5060e08201518160070160006101000a81548160ff021916908360ff1602179055509050505b50505050505050565b61063f610ad0565b6000808360405161065091906110bf565b90815260200160405180910390206040518061010001604052908160008201805461067a90611182565b80601f01602080910402602001604051908101604052809291908181526020018280546106a690611182565b80156106f35780601f106106c8576101008083540402835291602001916106f3565b820191906000526020600020905b8154815290600101906020018083116106d657829003601f168201915b5050505050815260200160018201805461070c90611182565b80601f016020809104026020016040519081016040528092919081815260200182805461073890611182565b80156107855780601f1061075a57610100808354040283529160200191610785565b820191906000526020600020905b81548152906001019060200180831161076857829003601f168201915b5050505050815260200160028201805461079e90611182565b80601f01602080910402602001604051908101604052809291908181526020018280546107ca90611182565b80156108175780601f106107ec57610100808354040283529160200191610817565b820191906000526020600020905b8154815290600101906020018083116107fa57829003601f168201915b5050505050815260200160038201805461083090611182565b80601f016020809104026020016040519081016040528092919081815260200182805461085c90611182565b80156108a95780601f1061087e576101008083540402835291602001916108a9565b820191906000526020600020905b81548152906001019060200180831161088c57829003601f168201915b505050505081526020016004820180546108c290611182565b80601f01602080910402602001604051908101604052809291908181526020018280546108ee90611182565b801561093b5780601f106109105761010080835404028352916020019161093b565b820191906000526020600020905b81548152906001019060200180831161091e57829003601f168201915b5050505050815260200160058201805461095490611182565b80601f016020809104026020016040519081016040528092919081815260200182805461098090611182565b80156109cd5780601f106109a2576101008083540402835291602001916109cd565b820191906000526020600020905b8154815290600101906020018083116109b057829003601f168201915b505050505081526020016006820180546109e690611182565b80601f0160208091040260200160405190810160405280929190818152602001828054610a1290611182565b8015610a5f5780601f10610a3457610100808354040283529160200191610a5f565b820191906000526020600020905b815481529060010190602001808311610a4257829003601f168201915b505050505081526020016007820160009054906101000a900460ff1660ff1660ff1681525050905080915050919050565b508054610a9c90611182565b6000825580601f10610aae5750610acd565b601f016020900490600052602060002090810190610acc9190610b18565b5b50565b60405180610100016040528060608152602001606081526020016060815260200160608152602001606081526020016060815260200160608152602001600060ff1681525090565b5b80821115610b31576000816000905550600101610b19565b5090565b6000604051905090565b600080fd5b600080fd5b600080fd5b600080fd5b6000601f19601f8301169050919050565b7f4e487b7100000000000000000000000000000000000000000000000000000000600052604160045260246000fd5b610b9c82610b53565b810181811067ffffffffffffffff82111715610bbb57610bba610b64565b5b80604052505050565b6000610bce610b35565b9050610bda8282610b93565b919050565b600067ffffffffffffffff821115610bfa57610bf9610b64565b5b610c0382610b53565b9050602081019050919050565b82818337600083830152505050565b6000610c32610c2d84610bdf565b610bc4565b905082815260208101848484011115610c4e57610c4d610b4e565b5b610c59848285610c10565b509392505050565b600082601f830112610c7657610c75610b49565b5b8135610c86848260208601610c1f565b91505092915050565b600060208284031215610ca557610ca4610b3f565b5b600082013567ffffffffffffffff811115610cc357610cc2610b44565b5b610ccf84828501610c61565b91505092915050565b60008115159050919050565b610ced81610cd8565b82525050565b6000602082019050610d086000830184610ce4565b92915050565b60008060408385031215610d2557610d24610b3f565b5b600083013567ffffffffffffffff811115610d4357610d42610b44565b5b610d4f85828601610c61565b925050602083013567ffffffffffffffff811115610d7057610d6f610b44565b5b610d7c85828601610c61565b9150509250929050565b600080600080600080600060e0888a031215610da557610da4610b3f565b5b600088013567ffffffffffffffff811115610dc357610dc2610b44565b5b610dcf8a828b01610c61565b975050602088013567ffffffffffffffff811115610df057610def610b44565b5b610dfc8a828b01610c61565b965050604088013567ffffffffffffffff811115610e1d57610e1c610b44565b5b610e298a828b01610c61565b955050606088013567ffffffffffffffff811115610e4a57610e49610b44565b5b610e568a828b01610c61565b945050608088013567ffffffffffffffff811115610e7757610e76610b44565b5b610e838a828b01610c61565b93505060a088013567ffffffffffffffff811115610ea457610ea3610b44565b5b610eb08a828b01610c61565b92505060c088013567ffffffffffffffff811115610ed157610ed0610b44565b5b610edd8a828b01610c61565b91505092959891949750929550565b600081519050919050565b600082825260208201905092915050565b60005b83811015610f26578082015181840152602081019050610f0b565b60008484015250505050565b6000610f3d82610eec565b610f478185610ef7565b9350610f57818560208601610f08565b610f6081610b53565b840191505092915050565b600060ff82169050919050565b610f8181610f6b565b82525050565b6000610100830160008301518482036000860152610fa58282610f32565b91505060208301518482036020860152610fbf8282610f32565b91505060408301518482036040860152610fd98282610f32565b91505060608301518482036060860152610ff38282610f32565b9150506080830151848203608086015261100d8282610f32565b91505060a083015184820360a08601526110278282610f32565b91505060c083015184820360c08601526110418282610f32565b91505060e083015161105660e0860182610f78565b508091505092915050565b6000602082019050818103600083015261107b8184610f87565b905092915050565b600081905092915050565b600061109982610eec565b6110a38185611083565b93506110b3818560208601610f08565b80840191505092915050565b60006110cb828461108e565b915081905092915050565b600082825260208201905092915050565b7f6e6f742065786973742075736572000000000000000000000000000000000000600082015250565b600061111d600e836110d6565b9150611128826110e7565b602082019050919050565b6000602082019050818103600083015261114c81611110565b9050919050565b7f4e487b7100000000000000000000000000000000000000000000000000000000600052602260045260246000fd5b6000600282049050600182168061119a57607f821691505b6020821081036111ad576111ac611153565b5b50919050565b7f50617373776f7264206e6f74206d617463680000000000000000000000000000600082015250565b60006111e96012836110d6565b91506111f4826111b3565b602082019050919050565b60006020820190508181036000830152611218816111dc565b9050919050565b60008190508160005260206000209050919050565b60006020601f8301049050919050565b600082821b905092915050565b6000600883026112817fffffffffffffffffffffffffffffffffffffffffffffffffffffffffffffffff82611244565b61128b8683611244565b95508019841693508086168417925050509392505050565b6000819050919050565b6000819050919050565b60006112d26112cd6112c8846112a3565b6112ad565b6112a3565b9050919050565b6000819050919050565b6112ec836112b7565b6113006112f8826112d9565b848454611251565b825550505050565b600090565b611315611308565b6113208184846112e3565b505050565b5b818110156113445761133960008261130d565b600181019050611326565b5050565b601f8211156113895761135a8161121f565b61136384611234565b81016020851015611372578190505b61138661137e85611234565b830182611325565b50505b505050565b600082821c905092915050565b60006113ac6000198460080261138e565b1980831691505092915050565b60006113c5838361139b565b9150826002028217905092915050565b6113de82610eec565b67ffffffffffffffff8111156113f7576113f6610b64565b5b6114018254611182565b61140c828285611348565b600060209050601f83116001811461143f576000841561142d578287015190505b61143785826113b9565b86555061149f565b601f19841661144d8661121f565b60005b8281101561147557848901518255600182019150602085019450602081019050611450565b86831015611492578489015161148e601f89168261139b565b8355505b6001600288020188555050505b50505050505056fea26469706673582212209a37aca815638d2434cd2d489f9ac6f96f4c1597c2177d7312cd6a488235db1564736f6c63430008120033",
  "immutableReferences": {},
  "source": "// SPDX-License-Identifier: MIT\r\n\r\n//  \r\npragma solidity >=0.7.0 <0.9.0;\r\n\r\ncontract User{\r\n\r\n    //    \r\n    //       \r\n    //   abled     1 \r\n    //  0\r\n    struct user_info{\r\n        string id;\r\n        string password;\r\n        string name;\r\n        string tel;\r\n        string loc;\r\n        string gender;\r\n        string email;\r\n        uint8 abled;\r\n    }\r\n\r\n    // mapping    \r\n    mapping (string => user_info) users;\r\n\r\n    //   ->    \r\n    function add_user(\r\n        string memory _id, \r\n        string memory _pass, \r\n        string memory _name, \r\n        string memory _tel, \r\n        string memory _loc, \r\n        string memory _gender, \r\n        string memory _email\r\n    ) public {\r\n        //     \r\n        if ( users[_id].abled == 0 ){\r\n            users[_id] = user_info(_id, _pass, _name, _tel, _loc, _gender, _email, 1);\r\n        }\r\n    }\r\n\r\n    //   \r\n    function update_user(\r\n        string memory _id, \r\n        string memory _pass, \r\n        string memory _name, \r\n        string memory _tel, \r\n        string memory _loc, \r\n        string memory _gender, \r\n        string memory _email\r\n    ) public {\r\n        //    \r\n        if ( users[_id].abled == 1 ){\r\n            users[_id] = user_info(_id, _pass, _name, _tel, _loc, _gender, _email, 1);\r\n        }\r\n    }\r\n\r\n    //    \r\n    function delete_user(\r\n        string memory _id, \r\n        string memory _pass\r\n    )public {\r\n        //   ?\r\n        require(users[_id].abled == 1, 'not exist user');\r\n        //   ?\r\n        bytes memory password = bytes(users[_id].password);\r\n        bytes memory password2 = bytes(_pass);\r\n        require(keccak256(password) == keccak256(password2), \"Password not match\");\r\n        delete users[_id];\r\n    }\r\n\r\n    //     \r\n    function check_id(string memory _id) public view returns (bool) {\r\n        if (users[_id].abled == 0){\r\n            return true;\r\n        }else{\r\n            return false;\r\n        }\r\n    }\r\n    //     (  )\r\n    function view_user(string memory _id) public view returns (user_info memory){\r\n        //   mapping data users   _id value \r\n        //    :       .(js, python) -> const, let\r\n        //    :       . (java, c, solidity) -> string, uint, bool\r\n        user_info memory result = users[_id];\r\n        return result;\r\n    } \r\n\r\n}",
  "sourcePath": "C:\\Users\\moons\\Documents\\GitHub\\masan_block_2309\\board_server\\contracts\\User.sol",
  "compiler": {
    "name": "solc",
    "version": "0.8.18+commit.87f61d96.Emscripten.clang"
  },
  "schemaVersion": "3.4.16",
  "updatedAt": "2023-10-11T10:52:44.503Z",
  "networkType": "ethereum",
  "devdoc": {
    "kind": "dev",
    "methods": {},
    "version": 1
  },
  "userdoc": {
    "kind": "user",
    "methods": {},
    "version": 1
  }
}